{
  "_format": "hh-sol-artifact-1",
  "contractName": "ContractsManager",
  "sourceName": "contracts/ContractsManager.sol",
  "abi": [
    {
      "inputs": [
        {
          "internalType": "address",
          "name": "usdcContractAddress",
          "type": "address"
        },
        {
          "internalType": "address",
          "name": "_arbitrator",
          "type": "address"
        }
      ],
      "stateMutability": "nonpayable",
      "type": "constructor"
    },
    {
      "anonymous": false,
      "inputs": [
        {
          "indexed": true,
          "internalType": "address",
          "name": "client",
          "type": "address"
        },
        {
          "indexed": true,
          "internalType": "address",
          "name": "freelancer",
          "type": "address"
        }
      ],
      "name": "ContractUpdate",
      "type": "event"
    },
    {
      "anonymous": false,
      "inputs": [
        {
          "indexed": true,
          "internalType": "address",
          "name": "client",
          "type": "address"
        },
        {
          "indexed": true,
          "internalType": "address",
          "name": "freelancer",
          "type": "address"
        }
      ],
      "name": "NewProposal",
      "type": "event"
    },
    {
      "anonymous": false,
      "inputs": [
        {
          "indexed": true,
          "internalType": "address",
          "name": "client",
          "type": "address"
        },
        {
          "indexed": true,
          "internalType": "address",
          "name": "freelancer",
          "type": "address"
        }
      ],
      "name": "ProposalDecision",
      "type": "event"
    },
    {
      "inputs": [],
      "name": "TokenContract",
      "outputs": [
        {
          "internalType": "contract IERC20",
          "name": "",
          "type": "address"
        }
      ],
      "stateMutability": "view",
      "type": "function"
    },
    {
      "inputs": [],
      "name": "UnicrowContract",
      "outputs": [
        {
          "internalType": "contract IUnicrow",
          "name": "",
          "type": "address"
        }
      ],
      "stateMutability": "view",
      "type": "function"
    },
    {
      "inputs": [
        {
          "internalType": "uint256",
          "name": "_proposalId",
          "type": "uint256"
        },
        {
          "components": [
            {
              "internalType": "address",
              "name": "buyer",
              "type": "address"
            },
            {
              "internalType": "address",
              "name": "seller",
              "type": "address"
            },
            {
              "internalType": "uint32",
              "name": "challengePeriod",
              "type": "uint32"
            },
            {
              "internalType": "uint256",
              "name": "amount",
              "type": "uint256"
            },
            {
              "internalType": "string",
              "name": "paymentReference",
              "type": "string"
            }
          ],
          "internalType": "struct ContractsManager.InternalEscrowInput",
          "name": "contract_params",
          "type": "tuple"
        },
        {
          "internalType": "uint256",
          "name": "_amount",
          "type": "uint256"
        }
      ],
      "name": "acceptProposal",
      "outputs": [],
      "stateMutability": "nonpayable",
      "type": "function"
    },
    {
      "inputs": [],
      "name": "balance",
      "outputs": [
        {
          "internalType": "uint256",
          "name": "",
          "type": "uint256"
        }
      ],
      "stateMutability": "view",
      "type": "function"
    },
    {
      "inputs": [
        {
          "internalType": "uint256",
          "name": "_proposalId",
          "type": "uint256"
        }
      ],
      "name": "cancle_proposal",
      "outputs": [],
      "stateMutability": "nonpayable",
      "type": "function"
    },
    {
      "inputs": [
        {
          "internalType": "address",
          "name": "",
          "type": "address"
        },
        {
          "internalType": "uint256",
          "name": "",
          "type": "uint256"
        }
      ],
      "name": "contracts",
      "outputs": [
        {
          "internalType": "uint256",
          "name": "clientContractId",
          "type": "uint256"
        },
        {
          "internalType": "uint256",
          "name": "freelancerContractId",
          "type": "uint256"
        },
        {
          "internalType": "uint256",
          "name": "amount",
          "type": "uint256"
        },
        {
          "internalType": "string",
          "name": "data",
          "type": "string"
        },
        {
          "internalType": "address",
          "name": "client",
          "type": "address"
        },
        {
          "internalType": "address",
          "name": "freelancer",
          "type": "address"
        },
        {
          "internalType": "enum ContractsManager.contractState",
          "name": "state",
          "type": "uint8"
        },
        {
          "internalType": "uint256",
          "name": "escrow_id",
          "type": "uint256"
        }
      ],
      "stateMutability": "view",
      "type": "function"
    },
    {
      "inputs": [
        {
          "internalType": "uint256",
          "name": "_amount",
          "type": "uint256"
        },
        {
          "internalType": "address",
          "name": "_freelancer",
          "type": "address"
        },
        {
          "internalType": "string",
          "name": "_data",
          "type": "string"
        }
      ],
      "name": "createProposal",
      "outputs": [],
      "stateMutability": "nonpayable",
      "type": "function"
    },
    {
      "inputs": [],
      "name": "get_contracts",
      "outputs": [
        {
          "components": [
            {
              "internalType": "uint256",
              "name": "clientContractId",
              "type": "uint256"
            },
            {
              "internalType": "uint256",
              "name": "freelancerContractId",
              "type": "uint256"
            },
            {
              "internalType": "uint256",
              "name": "amount",
              "type": "uint256"
            },
            {
              "internalType": "string",
              "name": "data",
              "type": "string"
            },
            {
              "internalType": "address",
              "name": "client",
              "type": "address"
            },
            {
              "internalType": "address",
              "name": "freelancer",
              "type": "address"
            },
            {
              "internalType": "enum ContractsManager.contractState",
              "name": "state",
              "type": "uint8"
            },
            {
              "internalType": "uint256",
              "name": "escrow_id",
              "type": "uint256"
            }
          ],
          "internalType": "struct ContractsManager.ContractDetails[]",
          "name": "",
          "type": "tuple[]"
        }
      ],
      "stateMutability": "view",
      "type": "function"
    },
    {
      "inputs": [],
      "name": "get_proposals",
      "outputs": [
        {
          "components": [
            {
              "internalType": "uint256",
              "name": "clientProposalId",
              "type": "uint256"
            },
            {
              "internalType": "uint256",
              "name": "freelancerProposalId",
              "type": "uint256"
            },
            {
              "internalType": "uint256",
              "name": "amount",
              "type": "uint256"
            },
            {
              "internalType": "string",
              "name": "data",
              "type": "string"
            },
            {
              "internalType": "bool",
              "name": "isAccepted",
              "type": "bool"
            },
            {
              "internalType": "address",
              "name": "client",
              "type": "address"
            },
            {
              "internalType": "address",
              "name": "freelancer",
              "type": "address"
            }
          ],
          "internalType": "struct ContractsManager.Proposal[]",
          "name": "",
          "type": "tuple[]"
        }
      ],
      "stateMutability": "view",
      "type": "function"
    },
    {
      "inputs": [
        {
          "internalType": "address",
          "name": "",
          "type": "address"
        },
        {
          "internalType": "uint256",
          "name": "",
          "type": "uint256"
        }
      ],
      "name": "proposals",
      "outputs": [
        {
          "internalType": "uint256",
          "name": "clientProposalId",
          "type": "uint256"
        },
        {
          "internalType": "uint256",
          "name": "freelancerProposalId",
          "type": "uint256"
        },
        {
          "internalType": "uint256",
          "name": "amount",
          "type": "uint256"
        },
        {
          "internalType": "string",
          "name": "data",
          "type": "string"
        },
        {
          "internalType": "bool",
          "name": "isAccepted",
          "type": "bool"
        },
        {
          "internalType": "address",
          "name": "client",
          "type": "address"
        },
        {
          "internalType": "address",
          "name": "freelancer",
          "type": "address"
        }
      ],
      "stateMutability": "view",
      "type": "function"
    },
    {
      "inputs": [],
      "name": "receiveEther",
      "outputs": [],
      "stateMutability": "payable",
      "type": "function"
    },
    {
      "inputs": [
        {
          "internalType": "uint256",
          "name": "_proposalId",
          "type": "uint256"
        }
      ],
      "name": "rejectProposal",
      "outputs": [],
      "stateMutability": "nonpayable",
      "type": "function"
    },
    {
      "inputs": [
        {
          "internalType": "uint256",
          "name": "_contractId",
          "type": "uint256"
        }
      ],
      "name": "release_payement",
      "outputs": [],
      "stateMutability": "nonpayable",
      "type": "function"
    },
    {
      "inputs": [
        {
          "internalType": "uint256",
          "name": "_contractId",
          "type": "uint256"
        }
      ],
      "name": "request_payement",
      "outputs": [],
      "stateMutability": "nonpayable",
      "type": "function"
    }
  ],
  "bytecode": "0x608060405260038054600560a11b61ffff60a01b19909116179055600580546001600160a01b031916736d98b03c09ead582a77c093bdb2d3e85683aa9561790553480156200004d57600080fd5b50604051620025fb380380620025fb8339810160408190526200007091620000db565b600554600680546001600160a01b039283166001600160a01b031991821617909155600780548216948316948517905560048054821690941790935560038054909316911617905562000113565b80516001600160a01b0381168114620000d657600080fd5b919050565b60008060408385031215620000ef57600080fd5b620000fa83620000be565b91506200010a60208401620000be565b90509250929050565b6124d880620001236000396000f3fe6080604052600436106100ad5760003560e01c80630f256276146100b25780635c7e9980146100e85780637930c1e91461010a5780638e23a2f51461012a5780639688738b1461015d578063a3912ec81461017d578063a8e29f4e14610185578063b69ef8a8146101a5578063bc28d878146101c9578063c7067752146101e9578063d19840431461020b578063d49de2041461022d578063d828ee021461024d578063ed23f8c31461026d575b600080fd5b3480156100be57600080fd5b506006546100d2906001600160a01b031681565b6040516100df9190611c8d565b60405180910390f35b3480156100f457600080fd5b50610108610103366004611ca1565b6102a1565b005b34801561011657600080fd5b50610108610125366004611cec565b6104a4565b34801561013657600080fd5b5061014a610145366004611db6565b61074c565b6040516100df9796959493929190611e33565b34801561016957600080fd5b506007546100d2906001600160a01b031681565b610108610844565b34801561019157600080fd5b506101086101a0366004611e81565b61085d565b3480156101b157600080fd5b506101bb60025481565b6040519081526020016100df565b3480156101d557600080fd5b506101086101e4366004611ca1565b610ef2565b3480156101f557600080fd5b506101fe611043565b6040516100df9190611ed6565b34801561021757600080fd5b50610220611193565b6040516100df9190611fc9565b34801561023957600080fd5b50610108610248366004611ca1565b611304565b34801561025957600080fd5b50610108610268366004611ca1565b61150a565b34801561027957600080fd5b5061028d610288366004611db6565b6116c8565b6040516100df98979695949392919061208f565b3360009081526001602052604081208054839081106102c2576102c26120f0565b60009182526020909120600690910201600481015490915060ff16156103035760405162461bcd60e51b81526004016102fa90612106565b60405180910390fd5b600481015461010090046001600160a01b031633146103705760405162461bcd60e51b815260206004820152602360248201527f4f6e6c7920636c69656e742063616e2063616e636c65207468652070726f706f6044820152621cd85b60ea1b60648201526084016102fa565b60048101805460ff191690556040805160e0810182528254815260018301546020820152600283015491810191909152600382018054610476929184916060840191906103bc90612139565b80601f01602080910402602001604051908101604052809291908181526020018280546103e890612139565b80156104355780601f1061040a57610100808354040283529160200191610435565b820191906000526020600020905b81548152906001019060200180831161041857829003601f168201915b5050509183525050600482015460ff8116151560208301526001600160a01b03610100909104811660408301526005909201549091166060909101526117c8565b60058101546040516001600160a01b0390911690339060008051602061248383398151915290600090a35050565b6007546040516370a0823160e01b815284916001600160a01b0316906370a08231906104d4903390600401611c8d565b602060405180830381865afa1580156104f1573d6000803e3d6000fd5b505050506040513d601f19601f820116820180604052508101906105159190612173565b116105625760405162461bcd60e51b815260206004820152601f60248201527f4e6f7420656e6f756768205553444320666f72207472616e73616374696f6e0060448201526064016102fa565b336000818152600160208181526040808420546001600160a01b0388168086528286208054845160e0810186528481528087018281529581018d8152606082018c8152608083018b905260a083019b909b5260c08201949094528787528188018355918852949096208651600686029091019081559251948301949094559251600282015593519193909291829190600382019061060090826121db565b50608082015160048201805460a08501516001600160a81b0319909116921515610100600160a81b031916929092176101006001600160a01b039384160217905560c090920151600590910180546001600160a01b031916919092161790553360009081526001602081815260408084208054808501825590855293829020855160069095020193845590840151918301919091558201516002820155606082015182919060038201906106b490826121db565b50608082015160048201805460a08501516001600160a81b0319909116921515610100600160a81b031916929092176101006001600160a01b039384160217905560c090920151600590910180546001600160a01b0319169183169190911790556040519086169033907fdd9acc151fa06b81279c5d8fc2ff8d5c4f239574dba7b6e705b3587675f1822c90600090a3505050505050565b6001602052816000526040600020818154811061076857600080fd5b90600052602060002090600602016000915091505080600001549080600101549080600201549080600301805461079e90612139565b80601f01602080910402602001604051908101604052809291908181526020018280546107ca90612139565b80156108175780601f106107ec57610100808354040283529160200191610817565b820191906000526020600020905b8154815290600101906020018083116107fa57829003601f168201915b5050506004840154600590940154929360ff8116936001600160a01b036101009092048216935016905087565b346002600082825461085691906122b0565b9091555050565b33600090815260016020526040812080548590811061087e5761087e6120f0565b60009182526020909120600690910201600481015490915060ff16156108b65760405162461bcd60e51b81526004016102fa90612106565b60058101546001600160a01b031633146109275760405162461bcd60e51b815260206004820152602c60248201527f4f6e6c792061737369676e656420667265656c616e6365722063616e2061636360448201526b195c1d081c1c9bdc1bdcd85b60a21b60648201526084016102fa565b60048101805460ff191660011790556040805161012081019091526000908061095360208701876122c9565b6001600160a01b0316815260200185602001602081019061097491906122c9565b6001600160a01b039081168252306020830152600354600160a01b900461ffff166040808401919091526004549091166060808401919091526080909201916109c2919088019088016122eb565b63ffffffff168152600060208201526060808701356040830152016109ea6080870187612311565b8080601f01602080910402602001604051908101604052809392919081815260200183838082843760009201919091525050509152506007546004848101546040516323b872dd60e01b81526101009091046001600160a01b03908116928201929092523060248201526044810187905292935016906323b872dd906064016020604051808303816000875af1158015610a88573d6000803e3d6000fd5b505050506040513d601f19601f82011682018060405250810190610aac919061235e565b5060075460055460405163095ea7b360e01b81526001600160a01b0391821660048201526024810186905291169063095ea7b3906044016020604051808303816000875af1158015610b02573d6000803e3d6000fd5b505050506040513d601f19601f82011682018060405250810190610b26919061235e565b50600654600354604051633f2db03760e01b81526000926001600160a01b0390811692633f2db03792610b6192879216908690600401612380565b6020604051808303816000875af1158015610b80573d6000803e3d6000fd5b505050506040513d601f19601f82011682018060405250810190610ba49190612173565b60048401546001600160a01b0361010091829004166000908152602081815260408083205433845281842054825195860183528186529285018390526002890154918501919091526003880180549596509094919391606083019190610c0990612139565b80601f0160208091040260200160405190810160405280929190818152602001828054610c3590612139565b8015610c825780601f10610c5757610100808354040283529160200191610c82565b820191906000526020600020905b815481529060010190602001808311610c6557829003601f168201915b505050918352505060048801546001600160a01b0361010090910481166020830152600589015416604082015260600160018152602090810186905233600090815280825260408082208054600181810183559184529284902085516007909402019283559284015192820192909255908201516002820155606082015191925082916003820190610d1490826121db565b506080820151600482810180546001600160a01b03199081166001600160a01b039485161790915560a085015160058501805492831691909416908117845560c086015193926001600160a81b03199092161790600160a01b908490811115610d7f57610d7f611f91565b021790555060e09190910151600690910155600486015461010090046001600160a01b03166000908152602081815260408083208054600180820183559185529383902085516007909502019384559184015191830191909155820151600282015560608201518291906003820190610df890826121db565b506080820151600482810180546001600160a01b03199081166001600160a01b039485161790915560a085015160058501805492831691909416908117845560c086015193926001600160a81b03199092161790600160a01b908490811115610e6357610e63611f91565b021790555060e082015181600601555050610eb1866040518060e00160405290816000820154815260200160018201548152602001600282015481526020016003820180546103bc90612139565b600486015460058701546040516101009092046001600160a01b039081169291169060008051602061248383398151915290600090a3505050505050505050565b336000908152600160205260408120805483908110610f1357610f136120f0565b60009182526020909120600690910201600481015490915060ff1615610f4b5760405162461bcd60e51b81526004016102fa90612106565b60058101546001600160a01b03163314610fbc5760405162461bcd60e51b815260206004820152602c60248201527f4f6e6c792061737369676e656420667265656c616e6365722063616e2072656a60448201526b1958dd081c1c9bdc1bdcd85b60a21b60648201526084016102fa565b60048101805460ff191690556040805160e0810182528254815260018301546020820152600283015491810191909152600382018054611008929184916060840191906103bc90612139565b600581015460048201546040516001600160a01b03928316926101009092049091169060008051602061248383398151915290600090a35050565b336000908152600160209081526040808320805482518185028101850190935280835260609492939192909184015b8282101561118a57838290600052602060002090600602016040518060e00160405290816000820154815260200160018201548152602001600282015481526020016003820180546110c390612139565b80601f01602080910402602001604051908101604052809291908181526020018280546110ef90612139565b801561113c5780601f106111115761010080835404028352916020019161113c565b820191906000526020600020905b81548152906001019060200180831161111f57829003601f168201915b5050509183525050600482015460ff811615156020808401919091526001600160a01b0361010090920482166040840152600590930154166060909101529082526001929092019101611072565b50505050905090565b33600090815260208181526040808320805482518185028101850190935280835260609492939192909184015b8282101561118a57838290600052602060002090600702016040518061010001604052908160008201548152602001600182015481526020016002820154815260200160038201805461121290612139565b80601f016020809104026020016040519081016040528092919081815260200182805461123e90612139565b801561128b5780601f106112605761010080835404028352916020019161128b565b820191906000526020600020905b81548152906001019060200180831161126e57829003601f168201915b50505091835250506004828101546001600160a01b03908116602084015260058401549081166040840152606090920191600160a01b900460ff16908111156112d6576112d6611f91565b60048111156112e7576112e7611f91565b8152602001600682015481525050815260200190600101906111c0565b336000908152602081905260408120805483908110611325576113256120f0565b90600052602060002090600702016040518061010001604052908160008201548152602001600182015481526020016002820154815260200160038201805461136d90612139565b80601f016020809104026020016040519081016040528092919081815260200182805461139990612139565b80156113e65780601f106113bb576101008083540402835291602001916113e6565b820191906000526020600020905b8154815290600101906020018083116113c957829003601f168201915b50505091835250506004828101546001600160a01b03908116602084015260058401549081166040840152606090920191600160a01b900460ff169081111561143157611431611f91565b600481111561144257611442611f91565b81526020016006820154815250509050336001600160a01b031681608001516001600160a01b0316146114b35760405162461bcd60e51b81526020600482015260196024820152784f6e6c7920636c69656e742063616e2063616c6c207468697360381b60448201526064016102fa565b6114be816004611b5b565b80608001516001600160a01b03168160a001516001600160a01b03167fa9acac058b16fcc9acf1df452cc5c85909d0310c119dc4499b58e8c13cd2d04560405160405180910390a35050565b33600090815260208190526040812080548390811061152b5761152b6120f0565b90600052602060002090600702016040518061010001604052908160008201548152602001600182015481526020016002820154815260200160038201805461157390612139565b80601f016020809104026020016040519081016040528092919081815260200182805461159f90612139565b80156115ec5780601f106115c1576101008083540402835291602001916115ec565b820191906000526020600020905b8154815290600101906020018083116115cf57829003601f168201915b50505091835250506004828101546001600160a01b03908116602084015260058401549081166040840152606090920191600160a01b900460ff169081111561163757611637611f91565b600481111561164857611648611f91565b81526020016006820154815250509050336001600160a01b03168160a001516001600160a01b0316146116bd5760405162461bcd60e51b815260206004820152601d60248201527f4f6e6c7920667265656c616e6365722063616e2063616c6c207468697300000060448201526064016102fa565b6114be816002611b5b565b600060205281600052604060002081815481106116e457600080fd5b90600052602060002090600702016000915091505080600001549080600101549080600201549080600301805461171a90612139565b80601f016020809104026020016040519081016040528092919081815260200182805461174690612139565b80156117935780601f1061176857610100808354040283529160200191611793565b820191906000526020600020905b81548152906001019060200180831161177657829003601f168201915b505050506004830154600584015460069094015492936001600160a01b03918216939181169250600160a01b900460ff169088565b60c08101516001600160a01b03166000908152600160209081526040822090830151815481106117fa576117fa6120f0565b6000918252602080832060a08601516001600160a01b03168452600190915260408320855181546006909402909201945091811061183a5761183a6120f0565b6000918252602080832060c08701516001600160a01b03908116855260019283905260408086205460a08a015190921686529094205460069093020193508211156119655760c08501516001600160a01b03166000908152600160208190526040909120906118a99084612459565b815481106118b9576118b96120f0565b6000918252602080832088820151600693909302016001818101939093558851815560c08901516001600160a01b031684529190526040909120805491955090806119065761190661246c565b60008281526020812060066000199093019283020181815560018101829055600281018290559061193a6003830182611c37565b506004810180546001600160a81b031916905560050180546001600160a01b031916905590556119eb565b60c08501516001600160a01b031660009081526001602052604090208054806119905761199061246c565b6000828152602081206006600019909301928302018181556001810182905560028101829055906119c46003830182611c37565b506004810180546001600160a81b031916905560050180546001600160a01b031916905590555b6001811115611ace5760a08501516001600160a01b0316600090815260016020819052604090912090611a1e9083612459565b81548110611a2e57611a2e6120f0565b60009182526020808320885160069093020191825560a08801516001600160a01b0316835260019052604090912080549194509080611a6f57611a6f61246c565b600082815260208120600660001990930192830201818155600181018290556002810182905590611aa36003830182611c37565b506004810180546001600160a81b031916905560050180546001600160a01b03191690559055611b54565b60a08501516001600160a01b03166000908152600160205260409020805480611af957611af961246c565b600082815260208120600660001990930192830201818155600181018290556002810182905590611b2d6003830182611c37565b506004810180546001600160a81b031916905560050180546001600160a01b031916905590555b5050505050565b60a08201516001600160a01b031660009081526020818152604082209084015181548110611b8b57611b8b6120f0565b6000918252602080832060808701516001600160a01b0316845290839052604083208651815460079094029092019450918110611bca57611bca6120f0565b90600052602060002090600702019050828260050160146101000a81548160ff02191690836004811115611c0057611c00611f91565b021790555060058101805484919060ff60a01b1916600160a01b836004811115611c2c57611c2c611f91565b021790555050505050565b508054611c4390612139565b6000825580601f10611c53575050565b601f016020900490600052602060002090810190611c719190611c74565b50565b5b80821115611c895760008155600101611c75565b5090565b6001600160a01b0391909116815260200190565b600060208284031215611cb357600080fd5b5035919050565b80356001600160a01b0381168114611cd157600080fd5b919050565b634e487b7160e01b600052604160045260246000fd5b600080600060608486031215611d0157600080fd5b83359250611d1160208501611cba565b915060408401356001600160401b0380821115611d2d57600080fd5b818601915086601f830112611d4157600080fd5b813581811115611d5357611d53611cd6565b604051601f8201601f19908116603f01168101908382118183101715611d7b57611d7b611cd6565b81604052828152896020848701011115611d9457600080fd5b8260208601602083013760006020848301015280955050505050509250925092565b60008060408385031215611dc957600080fd5b611dd283611cba565b946020939093013593505050565b6000815180845260005b81811015611e0657602081850181015186830182015201611dea565b506000602082860101526020601f19601f83011685010191505092915050565b6001600160a01b03169052565b87815286602082015285604082015260e060608201526000611e5860e0830187611de0565b9415156080830152506001600160a01b0392831660a0820152911660c090910152949350505050565b600080600060608486031215611e9657600080fd5b8335925060208401356001600160401b03811115611eb357600080fd5b840160a08187031215611ec557600080fd5b929592945050506040919091013590565b60006020808301818452808551808352604092508286019150828160051b87010184880160005b83811015611f8357603f19898403018552815160e081518552888201518986015287820151888601526060808301518282880152611f3d83880182611de0565b60808581015115159089015260a0808601516001600160a01b03908116918a019190915260c0958601511694909701939093525050509386019390860190600101611efd565b509098975050505050505050565b634e487b7160e01b600052602160045260246000fd5b60058110611fc557634e487b7160e01b600052602160045260246000fd5b9052565b60006020808301818452808551808352604092508286019150828160051b87010184880160005b83811015611f8357603f1989840301855281516101008151855288820151898601528782015188860152606080830151828288015261203183880182611de0565b6080858101516001600160a01b03908116918a019190915260a0808701519091169089015260c0808601519194509250905061206f82880182611fa7565b505060e09182015194909101939093529386019390860190600101611ff0565b60006101008a83528960208401528860408401528060608401526120b581840189611de0565b6001600160a01b038881166080860152871660a085015291506120dd905060c0830185611fa7565b8260e08301529998505050505050505050565b634e487b7160e01b600052603260045260246000fd5b602080825260199082015278141c9bdc1bdcd85b08185b1c9958591e481858d8d95c1d1959603a1b604082015260600190565b600181811c9082168061214d57607f821691505b60208210810361216d57634e487b7160e01b600052602260045260246000fd5b50919050565b60006020828403121561218557600080fd5b5051919050565b601f8211156121d657600081815260208120601f850160051c810160208610156121b35750805b601f850160051c820191505b818110156121d2578281556001016121bf565b5050505b505050565b81516001600160401b038111156121f4576121f4611cd6565b612208816122028454612139565b8461218c565b602080601f83116001811461223d57600084156122255750858301515b600019600386901b1c1916600185901b1785556121d2565b600085815260208120601f198616915b8281101561226c5788860151825594840194600190910190840161224d565b508582101561228a5787850151600019600388901b60f8161c191681555b5050505050600190811b01905550565b634e487b7160e01b600052601160045260246000fd5b808201808211156122c3576122c361229a565b92915050565b6000602082840312156122db57600080fd5b6122e482611cba565b9392505050565b6000602082840312156122fd57600080fd5b813563ffffffff811681146122e457600080fd5b6000808335601e1984360301811261232857600080fd5b8301803591506001600160401b0382111561234257600080fd5b60200191503681900382131561235757600080fd5b9250929050565b60006020828403121561237057600080fd5b815180151581146122e457600080fd5b60608152612392606082018551611e26565b600060208501516123a66080840182611e26565b5060408501516123b960a0840182611e26565b50606085015161ffff1660c083015260808501516123da60e0840182611e26565b5060a08501516101006123f48185018363ffffffff169052565b60c0870151915061012061240f8186018463ffffffff169052565b60e0880151610140860152818801519250806101608601525050612437610180840182611de0565b9150506124476020830185611e26565b61ffff83166040830152949350505050565b818103818111156122c3576122c361229a565b634e487b7160e01b600052603160045260246000fdfe0176673b3c8ca2e484df9e1f19e5bb910d7602d4fd919b7cec0f97ca45fe1b95a26469706673582212205dbc21327a85f497e67b745624da016242799a4e3992cc146341ced03983d20064736f6c63430008150033",
  "linkReferences": {},
  "deployedLinkReferences": {}
}