{
  "_format": "hh-sol-artifact-1",
  "contractName": "ContractsManager",
  "sourceName": "contracts/ContractsManager.sol",
  "abi": [
    {
      "inputs": [
        {
          "internalType": "address",
          "name": "usdcContractAddress",
          "type": "address"
        },
        {
          "internalType": "address",
          "name": "_arbitrator",
          "type": "address"
        }
      ],
      "stateMutability": "nonpayable",
      "type": "constructor"
    },
    {
      "anonymous": false,
      "inputs": [
        {
          "indexed": true,
          "internalType": "address",
          "name": "client",
          "type": "address"
        },
        {
          "indexed": true,
          "internalType": "address",
          "name": "freelancer",
          "type": "address"
        }
      ],
      "name": "ContractUpdate",
      "type": "event"
    },
    {
      "inputs": [],
      "name": "TokenContract",
      "outputs": [
        {
          "internalType": "contract IERC20",
          "name": "",
          "type": "address"
        }
      ],
      "stateMutability": "view",
      "type": "function"
    },
    {
      "inputs": [],
      "name": "UnicrowContract",
      "outputs": [
        {
          "internalType": "contract IUnicrow",
          "name": "",
          "type": "address"
        }
      ],
      "stateMutability": "view",
      "type": "function"
    },
    {
      "inputs": [
        {
          "internalType": "uint256",
          "name": "_proposalId",
          "type": "uint256"
        },
        {
          "components": [
            {
              "internalType": "address",
              "name": "buyer",
              "type": "address"
            },
            {
              "internalType": "address",
              "name": "seller",
              "type": "address"
            },
            {
              "internalType": "uint32",
              "name": "challengePeriod",
              "type": "uint32"
            },
            {
              "internalType": "uint256",
              "name": "amount",
              "type": "uint256"
            },
            {
              "internalType": "string",
              "name": "paymentReference",
              "type": "string"
            }
          ],
          "internalType": "struct ContractsManager.InternalEscrowInput",
          "name": "contract_params",
          "type": "tuple"
        },
        {
          "internalType": "uint256",
          "name": "_amount",
          "type": "uint256"
        }
      ],
      "name": "acceptProposal",
      "outputs": [],
      "stateMutability": "nonpayable",
      "type": "function"
    },
    {
      "inputs": [],
      "name": "balance",
      "outputs": [
        {
          "internalType": "uint256",
          "name": "",
          "type": "uint256"
        }
      ],
      "stateMutability": "view",
      "type": "function"
    },
    {
      "inputs": [
        {
          "internalType": "uint256",
          "name": "_proposalId",
          "type": "uint256"
        }
      ],
      "name": "cancle_proposal",
      "outputs": [],
      "stateMutability": "nonpayable",
      "type": "function"
    },
    {
      "inputs": [
        {
          "internalType": "address",
          "name": "",
          "type": "address"
        },
        {
          "internalType": "uint256",
          "name": "",
          "type": "uint256"
        }
      ],
      "name": "contracts",
      "outputs": [
        {
          "internalType": "uint256",
          "name": "clientContractId",
          "type": "uint256"
        },
        {
          "internalType": "uint256",
          "name": "freelancerContractId",
          "type": "uint256"
        },
        {
          "internalType": "uint256",
          "name": "amount",
          "type": "uint256"
        },
        {
          "internalType": "string",
          "name": "data",
          "type": "string"
        },
        {
          "internalType": "address",
          "name": "client",
          "type": "address"
        },
        {
          "internalType": "address",
          "name": "freelancer",
          "type": "address"
        },
        {
          "internalType": "enum ContractsManager.contractState",
          "name": "state",
          "type": "uint8"
        },
        {
          "internalType": "uint256",
          "name": "escrow_id",
          "type": "uint256"
        }
      ],
      "stateMutability": "view",
      "type": "function"
    },
    {
      "inputs": [
        {
          "internalType": "uint256",
          "name": "_amount",
          "type": "uint256"
        },
        {
          "internalType": "address",
          "name": "_freelancer",
          "type": "address"
        },
        {
          "internalType": "string",
          "name": "_data",
          "type": "string"
        }
      ],
      "name": "createProposal",
      "outputs": [],
      "stateMutability": "nonpayable",
      "type": "function"
    },
    {
      "inputs": [],
      "name": "get_contracts",
      "outputs": [
        {
          "components": [
            {
              "internalType": "uint256",
              "name": "clientContractId",
              "type": "uint256"
            },
            {
              "internalType": "uint256",
              "name": "freelancerContractId",
              "type": "uint256"
            },
            {
              "internalType": "uint256",
              "name": "amount",
              "type": "uint256"
            },
            {
              "internalType": "string",
              "name": "data",
              "type": "string"
            },
            {
              "internalType": "address",
              "name": "client",
              "type": "address"
            },
            {
              "internalType": "address",
              "name": "freelancer",
              "type": "address"
            },
            {
              "internalType": "enum ContractsManager.contractState",
              "name": "state",
              "type": "uint8"
            },
            {
              "internalType": "uint256",
              "name": "escrow_id",
              "type": "uint256"
            }
          ],
          "internalType": "struct ContractsManager.ContractDetails[]",
          "name": "",
          "type": "tuple[]"
        }
      ],
      "stateMutability": "view",
      "type": "function"
    },
    {
      "inputs": [],
      "name": "get_proposals",
      "outputs": [
        {
          "components": [
            {
              "internalType": "uint256",
              "name": "clientProposalId",
              "type": "uint256"
            },
            {
              "internalType": "uint256",
              "name": "freelancerProposalId",
              "type": "uint256"
            },
            {
              "internalType": "uint256",
              "name": "amount",
              "type": "uint256"
            },
            {
              "internalType": "string",
              "name": "data",
              "type": "string"
            },
            {
              "internalType": "bool",
              "name": "isAccepted",
              "type": "bool"
            },
            {
              "internalType": "address",
              "name": "client",
              "type": "address"
            },
            {
              "internalType": "address",
              "name": "freelancer",
              "type": "address"
            }
          ],
          "internalType": "struct ContractsManager.Proposal[]",
          "name": "",
          "type": "tuple[]"
        }
      ],
      "stateMutability": "view",
      "type": "function"
    },
    {
      "inputs": [
        {
          "internalType": "address",
          "name": "",
          "type": "address"
        },
        {
          "internalType": "uint256",
          "name": "",
          "type": "uint256"
        }
      ],
      "name": "proposals",
      "outputs": [
        {
          "internalType": "uint256",
          "name": "clientProposalId",
          "type": "uint256"
        },
        {
          "internalType": "uint256",
          "name": "freelancerProposalId",
          "type": "uint256"
        },
        {
          "internalType": "uint256",
          "name": "amount",
          "type": "uint256"
        },
        {
          "internalType": "string",
          "name": "data",
          "type": "string"
        },
        {
          "internalType": "bool",
          "name": "isAccepted",
          "type": "bool"
        },
        {
          "internalType": "address",
          "name": "client",
          "type": "address"
        },
        {
          "internalType": "address",
          "name": "freelancer",
          "type": "address"
        }
      ],
      "stateMutability": "view",
      "type": "function"
    },
    {
      "inputs": [],
      "name": "receiveEther",
      "outputs": [],
      "stateMutability": "payable",
      "type": "function"
    },
    {
      "inputs": [
        {
          "internalType": "uint256",
          "name": "_proposalId",
          "type": "uint256"
        }
      ],
      "name": "rejectProposal",
      "outputs": [],
      "stateMutability": "nonpayable",
      "type": "function"
    },
    {
      "inputs": [
        {
          "internalType": "uint256",
          "name": "_contractId",
          "type": "uint256"
        }
      ],
      "name": "release_payement",
      "outputs": [],
      "stateMutability": "nonpayable",
      "type": "function"
    },
    {
      "inputs": [
        {
          "internalType": "uint256",
          "name": "_contractId",
          "type": "uint256"
        }
      ],
      "name": "request_payement",
      "outputs": [],
      "stateMutability": "nonpayable",
      "type": "function"
    },
    {
      "inputs": [
        {
          "internalType": "uint256",
          "name": "_contractId",
          "type": "uint256"
        },
        {
          "internalType": "string",
          "name": "_new_data",
          "type": "string"
        }
      ],
      "name": "update_contract_data",
      "outputs": [],
      "stateMutability": "nonpayable",
      "type": "function"
    }
  ],
  "bytecode": "0x608060405260038054600560a11b61ffff60a01b19909116179055600580546001600160a01b031916736d98b03c09ead582a77c093bdb2d3e85683aa9561790553480156200004d57600080fd5b5060405162002917380380620029178339810160408190526200007091620000db565b600554600680546001600160a01b039283166001600160a01b031991821617909155600780548216948316948517905560048054821690941790935560038054909316911617905562000113565b80516001600160a01b0381168114620000d657600080fd5b919050565b60008060408385031215620000ef57600080fd5b620000fa83620000be565b91506200010a60208401620000be565b90509250929050565b6127f480620001236000396000f3fe6080604052600436106100b85760003560e01c80630f256276146100bd5780635c7e9980146100f35780637930c1e9146101155780638e23a2f5146101355780639688738b14610168578063a14ae4cb14610188578063a3912ec8146101a8578063a8e29f4e146101b0578063b69ef8a8146101d0578063bc28d878146101f4578063c706775214610214578063d198404314610236578063d49de20414610258578063d828ee0214610278578063ed23f8c314610298575b600080fd5b3480156100c957600080fd5b506006546100dd906001600160a01b031681565b6040516100ea9190611f4b565b60405180910390f35b3480156100ff57600080fd5b5061011361010e366004611f5f565b6102cc565b005b34801561012157600080fd5b50610113610130366004612036565b6104cf565b34801561014157600080fd5b5061015561015036600461208c565b610765565b6040516100ea9796959493929190612109565b34801561017457600080fd5b506007546100dd906001600160a01b031681565b34801561019457600080fd5b506101136101a3366004612157565b61085d565b610113610b14565b3480156101bc57600080fd5b506101136101cb36600461219d565b610b2d565b3480156101dc57600080fd5b506101e660025481565b6040519081526020016100ea565b34801561020057600080fd5b5061011361020f366004611f5f565b6111c2565b34801561022057600080fd5b50610229611313565b6040516100ea91906121f2565b34801561024257600080fd5b5061024b611463565b6040516100ea91906122e5565b34801561026457600080fd5b50610113610273366004611f5f565b6115d4565b34801561028457600080fd5b50610113610293366004611f5f565b6117c8565b3480156102a457600080fd5b506102b86102b336600461208c565b611986565b6040516100ea9897969594939291906123ab565b3360009081526001602052604081208054839081106102ed576102ed61240c565b60009182526020909120600690910201600481015490915060ff161561032e5760405162461bcd60e51b815260040161032590612422565b60405180910390fd5b600481015461010090046001600160a01b0316331461039b5760405162461bcd60e51b815260206004820152602360248201527f4f6e6c7920636c69656e742063616e2063616e636c65207468652070726f706f6044820152621cd85b60ea1b6064820152608401610325565b60048101805460ff191690556040805160e08101825282548152600183015460208201526002830154918101919091526003820180546104a1929184916060840191906103e790612455565b80601f016020809104026020016040519081016040528092919081815260200182805461041390612455565b80156104605780601f1061043557610100808354040283529160200191610460565b820191906000526020600020905b81548152906001019060200180831161044357829003601f168201915b5050509183525050600482015460ff8116151560208301526001600160a01b0361010090910481166040830152600590920154909116606090910152611a86565b60058101546040516001600160a01b0390911690339060008051602061279f83398151915290600090a35050565b6007546040516370a0823160e01b815284916001600160a01b0316906370a08231906104ff903390600401611f4b565b602060405180830381865afa15801561051c573d6000803e3d6000fd5b505050506040513d601f19601f82011682018060405250810190610540919061248f565b1161058d5760405162461bcd60e51b815260206004820152601f60248201527f4e6f7420656e6f756768205553444320666f72207472616e73616374696f6e006044820152606401610325565b336000818152600160208181526040808420546001600160a01b0388168086528286208054845160e0810186528481528087018281529581018d8152606082018c8152608083018b905260a083019b909b5260c08201949094528787528188018355918852949096208651600686029091019081559251948301949094559251600282015593519193909291829190600382019061062b90826124f7565b50608082015160048201805460a08501516001600160a81b0319909116921515610100600160a81b031916929092176101006001600160a01b039384160217905560c090920151600590910180546001600160a01b031916919092161790553360009081526001602081815260408084208054808501825590855293829020855160069095020193845590840151918301919091558201516002820155606082015182919060038201906106df90826124f7565b50608082015160048201805460a08501516001600160a81b0319909116921515610100600160a81b031916929092176101006001600160a01b039384160217905560c090920151600590910180546001600160a01b03191691831691909117905560405190861690339060008051602061279f83398151915290600090a3505050505050565b6001602052816000526040600020818154811061078157600080fd5b9060005260206000209060060201600091509150508060000154908060010154908060020154908060030180546107b790612455565b80601f01602080910402602001604051908101604052809291908181526020018280546107e390612455565b80156108305780601f1061080557610100808354040283529160200191610830565b820191906000526020600020905b81548152906001019060200180831161081357829003601f168201915b5050506004840154600590940154929360ff8116936001600160a01b036101009092048216935016905087565b33600090815260208190526040812080548490811061087e5761087e61240c565b9060005260206000209060070201604051806101000160405290816000820154815260200160018201548152602001600282015481526020016003820180546108c690612455565b80601f01602080910402602001604051908101604052809291908181526020018280546108f290612455565b801561093f5780601f106109145761010080835404028352916020019161093f565b820191906000526020600020905b81548152906001019060200180831161092257829003601f168201915b50505091835250506004828101546001600160a01b03908116602084015260058401549081166040840152606090920191600160a01b900460ff169081111561098a5761098a6122ad565b600481111561099b5761099b6122ad565b81526020016006820154815250509050336001600160a01b03168160a001516001600160a01b031614806109db575060808101516001600160a01b031633145b610a375760405162461bcd60e51b815260206004820152602760248201527f4f6e6c7920667265656c616e636572206f7220636c69656e742063616e2063616044820152666c6c207468697360c81b6064820152608401610325565b60a08101516001600160a01b031660009081526020818152604082209083015181548110610a6757610a6761240c565b6000918252602080832060808601516001600160a01b0316845290839052604083208551815460079094029092019450918110610aa657610aa661240c565b9060005260206000209060070201905083826003019081610ac791906124f7565b5060038101610ad685826124f7565b5082608001516001600160a01b03168360a001516001600160a01b031660008051602061279f83398151915260405160405180910390a35050505050565b3460026000828254610b2691906125cc565b9091555050565b336000908152600160205260408120805485908110610b4e57610b4e61240c565b60009182526020909120600690910201600481015490915060ff1615610b865760405162461bcd60e51b815260040161032590612422565b60058101546001600160a01b03163314610bf75760405162461bcd60e51b815260206004820152602c60248201527f4f6e6c792061737369676e656420667265656c616e6365722063616e2061636360448201526b195c1d081c1c9bdc1bdcd85b60a21b6064820152608401610325565b60048101805460ff1916600117905560408051610120810190915260009080610c2360208701876125e5565b6001600160a01b03168152602001856020016020810190610c4491906125e5565b6001600160a01b039081168252306020830152600354600160a01b900461ffff16604080840191909152600454909116606080840191909152608090920191610c9291908801908801612607565b63ffffffff16815260006020820152606080870135604083015201610cba608087018761262d565b8080601f01602080910402602001604051908101604052809392919081815260200183838082843760009201919091525050509152506007546004848101546040516323b872dd60e01b81526101009091046001600160a01b03908116928201929092523060248201526044810187905292935016906323b872dd906064016020604051808303816000875af1158015610d58573d6000803e3d6000fd5b505050506040513d601f19601f82011682018060405250810190610d7c919061267a565b5060075460055460405163095ea7b360e01b81526001600160a01b0391821660048201526024810186905291169063095ea7b3906044016020604051808303816000875af1158015610dd2573d6000803e3d6000fd5b505050506040513d601f19601f82011682018060405250810190610df6919061267a565b50600654600354604051633f2db03760e01b81526000926001600160a01b0390811692633f2db03792610e319287921690869060040161269c565b6020604051808303816000875af1158015610e50573d6000803e3d6000fd5b505050506040513d601f19601f82011682018060405250810190610e74919061248f565b60048401546001600160a01b0361010091829004166000908152602081815260408083205433845281842054825195860183528186529285018390526002890154918501919091526003880180549596509094919391606083019190610ed990612455565b80601f0160208091040260200160405190810160405280929190818152602001828054610f0590612455565b8015610f525780601f10610f2757610100808354040283529160200191610f52565b820191906000526020600020905b815481529060010190602001808311610f3557829003601f168201915b505050918352505060048801546001600160a01b0361010090910481166020830152600589015416604082015260600160018152602090810186905233600090815280825260408082208054600181810183559184529284902085516007909402019283559284015192820192909255908201516002820155606082015191925082916003820190610fe490826124f7565b506080820151600482810180546001600160a01b03199081166001600160a01b039485161790915560a085015160058501805492831691909416908117845560c086015193926001600160a81b03199092161790600160a01b90849081111561104f5761104f6122ad565b021790555060e09190910151600690910155600486015461010090046001600160a01b031660009081526020818152604080832080546001808201835591855293839020855160079095020193845591840151918301919091558201516002820155606082015182919060038201906110c890826124f7565b506080820151600482810180546001600160a01b03199081166001600160a01b039485161790915560a085015160058501805492831691909416908117845560c086015193926001600160a81b03199092161790600160a01b908490811115611133576111336122ad565b021790555060e082015181600601555050611181866040518060e00160405290816000820154815260200160018201548152602001600282015481526020016003820180546103e790612455565b600486015460058701546040516101009092046001600160a01b039081169291169060008051602061279f83398151915290600090a3505050505050505050565b3360009081526001602052604081208054839081106111e3576111e361240c565b60009182526020909120600690910201600481015490915060ff161561121b5760405162461bcd60e51b815260040161032590612422565b60058101546001600160a01b0316331461128c5760405162461bcd60e51b815260206004820152602c60248201527f4f6e6c792061737369676e656420667265656c616e6365722063616e2072656a60448201526b1958dd081c1c9bdc1bdcd85b60a21b6064820152608401610325565b60048101805460ff191690556040805160e08101825282548152600183015460208201526002830154918101919091526003820180546112d8929184916060840191906103e790612455565b600581015460048201546040516001600160a01b03928316926101009092049091169060008051602061279f83398151915290600090a35050565b336000908152600160209081526040808320805482518185028101850190935280835260609492939192909184015b8282101561145a57838290600052602060002090600602016040518060e001604052908160008201548152602001600182015481526020016002820154815260200160038201805461139390612455565b80601f01602080910402602001604051908101604052809291908181526020018280546113bf90612455565b801561140c5780601f106113e15761010080835404028352916020019161140c565b820191906000526020600020905b8154815290600101906020018083116113ef57829003601f168201915b5050509183525050600482015460ff811615156020808401919091526001600160a01b0361010090920482166040840152600590930154166060909101529082526001929092019101611342565b50505050905090565b33600090815260208181526040808320805482518185028101850190935280835260609492939192909184015b8282101561145a5783829060005260206000209060070201604051806101000160405290816000820154815260200160018201548152602001600282015481526020016003820180546114e290612455565b80601f016020809104026020016040519081016040528092919081815260200182805461150e90612455565b801561155b5780601f106115305761010080835404028352916020019161155b565b820191906000526020600020905b81548152906001019060200180831161153e57829003601f168201915b50505091835250506004828101546001600160a01b03908116602084015260058401549081166040840152606090920191600160a01b900460ff16908111156115a6576115a66122ad565b60048111156115b7576115b76122ad565b815260200160068201548152505081526020019060010190611490565b3360009081526020819052604081208054839081106115f5576115f561240c565b90600052602060002090600702016040518061010001604052908160008201548152602001600182015481526020016002820154815260200160038201805461163d90612455565b80601f016020809104026020016040519081016040528092919081815260200182805461166990612455565b80156116b65780601f1061168b576101008083540402835291602001916116b6565b820191906000526020600020905b81548152906001019060200180831161169957829003601f168201915b50505091835250506004828101546001600160a01b03908116602084015260058401549081166040840152606090920191600160a01b900460ff1690811115611701576117016122ad565b6004811115611712576117126122ad565b81526020016006820154815250509050336001600160a01b031681608001516001600160a01b0316146117835760405162461bcd60e51b81526020600482015260196024820152784f6e6c7920636c69656e742063616e2063616c6c207468697360381b6044820152606401610325565b61178e816004611e19565b80608001516001600160a01b03168160a001516001600160a01b031660008051602061279f83398151915260405160405180910390a35050565b3360009081526020819052604081208054839081106117e9576117e961240c565b90600052602060002090600702016040518061010001604052908160008201548152602001600182015481526020016002820154815260200160038201805461183190612455565b80601f016020809104026020016040519081016040528092919081815260200182805461185d90612455565b80156118aa5780601f1061187f576101008083540402835291602001916118aa565b820191906000526020600020905b81548152906001019060200180831161188d57829003601f168201915b50505091835250506004828101546001600160a01b03908116602084015260058401549081166040840152606090920191600160a01b900460ff16908111156118f5576118f56122ad565b6004811115611906576119066122ad565b81526020016006820154815250509050336001600160a01b03168160a001516001600160a01b03161461197b5760405162461bcd60e51b815260206004820152601d60248201527f4f6e6c7920667265656c616e6365722063616e2063616c6c20746869730000006044820152606401610325565b61178e816002611e19565b600060205281600052604060002081815481106119a257600080fd5b9060005260206000209060070201600091509150508060000154908060010154908060020154908060030180546119d890612455565b80601f0160208091040260200160405190810160405280929190818152602001828054611a0490612455565b8015611a515780601f10611a2657610100808354040283529160200191611a51565b820191906000526020600020905b815481529060010190602001808311611a3457829003601f168201915b505050506004830154600584015460069094015492936001600160a01b03918216939181169250600160a01b900460ff169088565b60c08101516001600160a01b0316600090815260016020908152604082209083015181548110611ab857611ab861240c565b6000918252602080832060a08601516001600160a01b031684526001909152604083208551815460069094029092019450918110611af857611af861240c565b6000918252602080832060c08701516001600160a01b03908116855260019283905260408086205460a08a01519092168652909420546006909302019350821115611c235760c08501516001600160a01b0316600090815260016020819052604090912090611b679084612775565b81548110611b7757611b7761240c565b6000918252602080832088820151600693909302016001818101939093558851815560c08901516001600160a01b03168452919052604090912080549195509080611bc457611bc4612788565b600082815260208120600660001990930192830201818155600181018290556002810182905590611bf86003830182611ef5565b506004810180546001600160a81b031916905560050180546001600160a01b03191690559055611ca9565b60c08501516001600160a01b03166000908152600160205260409020805480611c4e57611c4e612788565b600082815260208120600660001990930192830201818155600181018290556002810182905590611c826003830182611ef5565b506004810180546001600160a81b031916905560050180546001600160a01b031916905590555b6001811115611d8c5760a08501516001600160a01b0316600090815260016020819052604090912090611cdc9083612775565b81548110611cec57611cec61240c565b60009182526020808320885160069093020191825560a08801516001600160a01b0316835260019052604090912080549194509080611d2d57611d2d612788565b600082815260208120600660001990930192830201818155600181018290556002810182905590611d616003830182611ef5565b506004810180546001600160a81b031916905560050180546001600160a01b03191690559055611e12565b60a08501516001600160a01b03166000908152600160205260409020805480611db757611db7612788565b600082815260208120600660001990930192830201818155600181018290556002810182905590611deb6003830182611ef5565b506004810180546001600160a81b031916905560050180546001600160a01b031916905590555b5050505050565b60a08201516001600160a01b031660009081526020818152604082209084015181548110611e4957611e4961240c565b6000918252602080832060808701516001600160a01b0316845290839052604083208651815460079094029092019450918110611e8857611e8861240c565b90600052602060002090600702019050828260050160146101000a81548160ff02191690836004811115611ebe57611ebe6122ad565b021790555060058101805484919060ff60a01b1916600160a01b836004811115611eea57611eea6122ad565b021790555050505050565b508054611f0190612455565b6000825580601f10611f11575050565b601f016020900490600052602060002090810190611f2f9190611f32565b50565b5b80821115611f475760008155600101611f33565b5090565b6001600160a01b0391909116815260200190565b600060208284031215611f7157600080fd5b5035919050565b80356001600160a01b0381168114611f8f57600080fd5b919050565b634e487b7160e01b600052604160045260246000fd5b600082601f830112611fbb57600080fd5b81356001600160401b0380821115611fd557611fd5611f94565b604051601f8301601f19908116603f01168101908282118183101715611ffd57611ffd611f94565b8160405283815286602085880101111561201657600080fd5b836020870160208301376000602085830101528094505050505092915050565b60008060006060848603121561204b57600080fd5b8335925061205b60208501611f78565b915060408401356001600160401b0381111561207657600080fd5b61208286828701611faa565b9150509250925092565b6000806040838503121561209f57600080fd5b6120a883611f78565b946020939093013593505050565b6000815180845260005b818110156120dc576020818501810151868301820152016120c0565b506000602082860101526020601f19601f83011685010191505092915050565b6001600160a01b03169052565b87815286602082015285604082015260e06060820152600061212e60e08301876120b6565b9415156080830152506001600160a01b0392831660a0820152911660c090910152949350505050565b6000806040838503121561216a57600080fd5b8235915060208301356001600160401b0381111561218757600080fd5b61219385828601611faa565b9150509250929050565b6000806000606084860312156121b257600080fd5b8335925060208401356001600160401b038111156121cf57600080fd5b840160a081870312156121e157600080fd5b929592945050506040919091013590565b60006020808301818452808551808352604092508286019150828160051b87010184880160005b8381101561229f57603f19898403018552815160e081518552888201518986015287820151888601526060808301518282880152612259838801826120b6565b60808581015115159089015260a0808601516001600160a01b03908116918a019190915260c0958601511694909701939093525050509386019390860190600101612219565b509098975050505050505050565b634e487b7160e01b600052602160045260246000fd5b600581106122e157634e487b7160e01b600052602160045260246000fd5b9052565b60006020808301818452808551808352604092508286019150828160051b87010184880160005b8381101561229f57603f1989840301855281516101008151855288820151898601528782015188860152606080830151828288015261234d838801826120b6565b6080858101516001600160a01b03908116918a019190915260a0808701519091169089015260c0808601519194509250905061238b828801826122c3565b505060e0918201519490910193909352938601939086019060010161230c565b60006101008a83528960208401528860408401528060608401526123d1818401896120b6565b6001600160a01b038881166080860152871660a085015291506123f9905060c08301856122c3565b8260e08301529998505050505050505050565b634e487b7160e01b600052603260045260246000fd5b602080825260199082015278141c9bdc1bdcd85b08185b1c9958591e481858d8d95c1d1959603a1b604082015260600190565b600181811c9082168061246957607f821691505b60208210810361248957634e487b7160e01b600052602260045260246000fd5b50919050565b6000602082840312156124a157600080fd5b5051919050565b601f8211156124f257600081815260208120601f850160051c810160208610156124cf5750805b601f850160051c820191505b818110156124ee578281556001016124db565b5050505b505050565b81516001600160401b0381111561251057612510611f94565b6125248161251e8454612455565b846124a8565b602080601f83116001811461255957600084156125415750858301515b600019600386901b1c1916600185901b1785556124ee565b600085815260208120601f198616915b8281101561258857888601518255948401946001909101908401612569565b50858210156125a65787850151600019600388901b60f8161c191681555b5050505050600190811b01905550565b634e487b7160e01b600052601160045260246000fd5b808201808211156125df576125df6125b6565b92915050565b6000602082840312156125f757600080fd5b61260082611f78565b9392505050565b60006020828403121561261957600080fd5b813563ffffffff8116811461260057600080fd5b6000808335601e1984360301811261264457600080fd5b8301803591506001600160401b0382111561265e57600080fd5b60200191503681900382131561267357600080fd5b9250929050565b60006020828403121561268c57600080fd5b8151801515811461260057600080fd5b606081526126ae6060820185516120fc565b600060208501516126c260808401826120fc565b5060408501516126d560a08401826120fc565b50606085015161ffff1660c083015260808501516126f660e08401826120fc565b5060a08501516101006127108185018363ffffffff169052565b60c0870151915061012061272b8186018463ffffffff169052565b60e08801516101408601528188015192508061016086015250506127536101808401826120b6565b91505061276360208301856120fc565b61ffff83166040830152949350505050565b818103818111156125df576125df6125b6565b634e487b7160e01b600052603160045260246000fdfea9acac058b16fcc9acf1df452cc5c85909d0310c119dc4499b58e8c13cd2d045a2646970667358221220c0af06fd8855bdbe63b93859bed61ff08b93ae12e3e4d9387f14a2b73e494c6964736f6c63430008150033",
  "linkReferences": {},
  "deployedLinkReferences": {}
}