{
  "_format": "hh-sol-artifact-1",
  "contractName": "ContractsManager",
  "sourceName": "contracts/ContractsManager.sol",
  "abi": [
    {
      "inputs": [
        {
          "internalType": "address",
          "name": "usdcContractAddress",
          "type": "address"
        },
        {
          "internalType": "address",
          "name": "_arbitrator",
          "type": "address"
        }
      ],
      "stateMutability": "nonpayable",
      "type": "constructor"
    },
    {
      "anonymous": false,
      "inputs": [
        {
          "indexed": true,
          "internalType": "address",
          "name": "client",
          "type": "address"
        },
        {
          "indexed": true,
          "internalType": "address",
          "name": "freelancer",
          "type": "address"
        }
      ],
      "name": "ContractUpdate",
      "type": "event"
    },
    {
      "inputs": [],
      "name": "TokenContract",
      "outputs": [
        {
          "internalType": "contract IERC20",
          "name": "",
          "type": "address"
        }
      ],
      "stateMutability": "view",
      "type": "function"
    },
    {
      "inputs": [],
      "name": "UnicrowContract",
      "outputs": [
        {
          "internalType": "contract IUnicrow",
          "name": "",
          "type": "address"
        }
      ],
      "stateMutability": "view",
      "type": "function"
    },
    {
      "inputs": [
        {
          "internalType": "uint256",
          "name": "_proposalId",
          "type": "uint256"
        },
        {
          "components": [
            {
              "internalType": "address",
              "name": "buyer",
              "type": "address"
            },
            {
              "internalType": "address",
              "name": "seller",
              "type": "address"
            },
            {
              "internalType": "uint32",
              "name": "challengePeriod",
              "type": "uint32"
            },
            {
              "internalType": "uint256",
              "name": "amount",
              "type": "uint256"
            },
            {
              "internalType": "string",
              "name": "paymentReference",
              "type": "string"
            }
          ],
          "internalType": "struct ContractsManager.InternalEscrowInput",
          "name": "contract_params",
          "type": "tuple"
        },
        {
          "internalType": "uint256",
          "name": "_amount",
          "type": "uint256"
        }
      ],
      "name": "acceptProposal",
      "outputs": [],
      "stateMutability": "nonpayable",
      "type": "function"
    },
    {
      "inputs": [],
      "name": "balance",
      "outputs": [
        {
          "internalType": "uint256",
          "name": "",
          "type": "uint256"
        }
      ],
      "stateMutability": "view",
      "type": "function"
    },
    {
      "inputs": [
        {
          "internalType": "uint256",
          "name": "_proposalId",
          "type": "uint256"
        }
      ],
      "name": "cancle_proposal",
      "outputs": [],
      "stateMutability": "nonpayable",
      "type": "function"
    },
    {
      "inputs": [
        {
          "internalType": "address",
          "name": "",
          "type": "address"
        },
        {
          "internalType": "uint256",
          "name": "",
          "type": "uint256"
        }
      ],
      "name": "contracts",
      "outputs": [
        {
          "internalType": "uint256",
          "name": "clientContractId",
          "type": "uint256"
        },
        {
          "internalType": "uint256",
          "name": "freelancerContractId",
          "type": "uint256"
        },
        {
          "internalType": "uint256",
          "name": "amount",
          "type": "uint256"
        },
        {
          "internalType": "string",
          "name": "data",
          "type": "string"
        },
        {
          "internalType": "address",
          "name": "client",
          "type": "address"
        },
        {
          "internalType": "address",
          "name": "freelancer",
          "type": "address"
        },
        {
          "internalType": "enum ContractsManager.contractState",
          "name": "state",
          "type": "uint8"
        },
        {
          "internalType": "uint256",
          "name": "escrow_id",
          "type": "uint256"
        }
      ],
      "stateMutability": "view",
      "type": "function"
    },
    {
      "inputs": [
        {
          "internalType": "uint256",
          "name": "_amount",
          "type": "uint256"
        },
        {
          "internalType": "address",
          "name": "_freelancer",
          "type": "address"
        },
        {
          "internalType": "string",
          "name": "_data",
          "type": "string"
        }
      ],
      "name": "createProposal",
      "outputs": [],
      "stateMutability": "nonpayable",
      "type": "function"
    },
    {
      "inputs": [
        {
          "internalType": "address",
          "name": "_user",
          "type": "address"
        }
      ],
      "name": "get_contracts",
      "outputs": [
        {
          "components": [
            {
              "internalType": "uint256",
              "name": "clientContractId",
              "type": "uint256"
            },
            {
              "internalType": "uint256",
              "name": "freelancerContractId",
              "type": "uint256"
            },
            {
              "internalType": "uint256",
              "name": "amount",
              "type": "uint256"
            },
            {
              "internalType": "string",
              "name": "data",
              "type": "string"
            },
            {
              "internalType": "address",
              "name": "client",
              "type": "address"
            },
            {
              "internalType": "address",
              "name": "freelancer",
              "type": "address"
            },
            {
              "internalType": "enum ContractsManager.contractState",
              "name": "state",
              "type": "uint8"
            },
            {
              "internalType": "uint256",
              "name": "escrow_id",
              "type": "uint256"
            }
          ],
          "internalType": "struct ContractsManager.ContractDetails[]",
          "name": "",
          "type": "tuple[]"
        }
      ],
      "stateMutability": "view",
      "type": "function"
    },
    {
      "inputs": [
        {
          "internalType": "address",
          "name": "_user",
          "type": "address"
        }
      ],
      "name": "get_proposals",
      "outputs": [
        {
          "components": [
            {
              "internalType": "uint256",
              "name": "clientProposalId",
              "type": "uint256"
            },
            {
              "internalType": "uint256",
              "name": "freelancerProposalId",
              "type": "uint256"
            },
            {
              "internalType": "uint256",
              "name": "amount",
              "type": "uint256"
            },
            {
              "internalType": "string",
              "name": "data",
              "type": "string"
            },
            {
              "internalType": "bool",
              "name": "isAccepted",
              "type": "bool"
            },
            {
              "internalType": "address",
              "name": "client",
              "type": "address"
            },
            {
              "internalType": "address",
              "name": "freelancer",
              "type": "address"
            }
          ],
          "internalType": "struct ContractsManager.Proposal[]",
          "name": "",
          "type": "tuple[]"
        }
      ],
      "stateMutability": "view",
      "type": "function"
    },
    {
      "inputs": [
        {
          "internalType": "address",
          "name": "",
          "type": "address"
        },
        {
          "internalType": "uint256",
          "name": "",
          "type": "uint256"
        }
      ],
      "name": "proposals",
      "outputs": [
        {
          "internalType": "uint256",
          "name": "clientProposalId",
          "type": "uint256"
        },
        {
          "internalType": "uint256",
          "name": "freelancerProposalId",
          "type": "uint256"
        },
        {
          "internalType": "uint256",
          "name": "amount",
          "type": "uint256"
        },
        {
          "internalType": "string",
          "name": "data",
          "type": "string"
        },
        {
          "internalType": "bool",
          "name": "isAccepted",
          "type": "bool"
        },
        {
          "internalType": "address",
          "name": "client",
          "type": "address"
        },
        {
          "internalType": "address",
          "name": "freelancer",
          "type": "address"
        }
      ],
      "stateMutability": "view",
      "type": "function"
    },
    {
      "inputs": [],
      "name": "receiveEther",
      "outputs": [],
      "stateMutability": "payable",
      "type": "function"
    },
    {
      "inputs": [
        {
          "internalType": "uint256",
          "name": "_proposalId",
          "type": "uint256"
        }
      ],
      "name": "rejectProposal",
      "outputs": [],
      "stateMutability": "nonpayable",
      "type": "function"
    },
    {
      "inputs": [
        {
          "internalType": "uint256",
          "name": "_contractId",
          "type": "uint256"
        }
      ],
      "name": "release_payement",
      "outputs": [],
      "stateMutability": "nonpayable",
      "type": "function"
    },
    {
      "inputs": [
        {
          "internalType": "uint256",
          "name": "_contractId",
          "type": "uint256"
        }
      ],
      "name": "request_payement",
      "outputs": [],
      "stateMutability": "nonpayable",
      "type": "function"
    },
    {
      "inputs": [
        {
          "internalType": "address",
          "name": "",
          "type": "address"
        }
      ],
      "name": "score",
      "outputs": [
        {
          "internalType": "uint256",
          "name": "",
          "type": "uint256"
        }
      ],
      "stateMutability": "view",
      "type": "function"
    },
    {
      "inputs": [
        {
          "internalType": "uint256",
          "name": "_contractId",
          "type": "uint256"
        },
        {
          "internalType": "string",
          "name": "_new_data",
          "type": "string"
        }
      ],
      "name": "update_contract_data",
      "outputs": [],
      "stateMutability": "nonpayable",
      "type": "function"
    }
  ],
  "bytecode": "0x608060405260048054600560a11b61ffff60a01b19909116179055600680546001600160a01b031916736d98b03c09ead582a77c093bdb2d3e85683aa9561790553480156200004d57600080fd5b5060405162002ba138038062002ba18339810160408190526200007091620000db565b600654600780546001600160a01b039283166001600160a01b031991821617909155600880548216948316948517905560058054821690941790935560048054909316911617905562000113565b80516001600160a01b0381168114620000d657600080fd5b919050565b60008060408385031215620000ef57600080fd5b620000fa83620000be565b91506200010a60208401620000be565b90509250929050565b612a7e80620001236000396000f3fe6080604052600436106100d35760003560e01c8063a14ae4cb1161007a578063a14ae4cb14610238578063a3912ec814610258578063a8e29f4e14610260578063b69ef8a814610280578063bc28d87814610296578063d49de204146102b6578063d828ee02146102d6578063ed23f8c3146102f657600080fd5b80630f256276146100d85780631efdbe571461010e5780635c7e99801461013b578063776f38431461015d5780637800e96a146101985780637930c1e9146101c55780638e23a2f5146101e55780639688738b14610218575b600080fd5b3480156100e457600080fd5b506007546100f8906001600160a01b031681565b60405161010591906120a9565b60405180910390f35b34801561011a57600080fd5b5061012e6101293660046120d9565b61032a565b604051610105919061214e565b34801561014757600080fd5b5061015b610156366004612209565b610485565b005b34801561016957600080fd5b5061018a6101783660046120d9565b60026020526000908152604090205481565b604051908152602001610105565b3480156101a457600080fd5b506101b86101b33660046120d9565b610688565b604051610105919061225a565b3480156101d157600080fd5b5061015b6101e03660046123c2565b610802565b3480156101f157600080fd5b50610205610200366004612418565b610a98565b6040516101059796959493929190612442565b34801561022457600080fd5b506008546100f8906001600160a01b031681565b34801561024457600080fd5b5061015b610253366004612490565b610b90565b61015b610e47565b34801561026c57600080fd5b5061015b61027b3660046124d6565b610e60565b34801561028c57600080fd5b5061018a60035481565b3480156102a257600080fd5b5061015b6102b1366004612209565b6114f6565b3480156102c257600080fd5b5061015b6102d1366004612209565b611647565b3480156102e257600080fd5b5061015b6102f1366004612209565b6118ec565b34801561030257600080fd5b50610316610311366004612418565b611ae4565b60405161010598979695949392919061252b565b6001600160a01b0381166000908152600160209081526040808320805482518185028101850190935280835260609492939192909184015b8282101561047a57838290600052602060002090600602016040518060e00160405290816000820154815260200160018201548152602001600282015481526020016003820180546103b39061258c565b80601f01602080910402602001604051908101604052809291908181526020018280546103df9061258c565b801561042c5780601f106104015761010080835404028352916020019161042c565b820191906000526020600020905b81548152906001019060200180831161040f57829003601f168201915b5050509183525050600482015460ff811615156020808401919091526001600160a01b0361010090920482166040840152600590930154166060909101529082526001929092019101610362565b505050509050919050565b3360009081526001602052604081208054839081106104a6576104a66125c6565b60009182526020909120600690910201600481015490915060ff16156104e75760405162461bcd60e51b81526004016104de906125dc565b60405180910390fd5b600481015461010090046001600160a01b031633146105545760405162461bcd60e51b815260206004820152602360248201527f4f6e6c7920636c69656e742063616e2063616e636c65207468652070726f706f6044820152621cd85b60ea1b60648201526084016104de565b60048101805460ff191690556040805160e081018252825481526001830154602082015260028301549181019190915260038201805461065a929184916060840191906105a09061258c565b80601f01602080910402602001604051908101604052809291908181526020018280546105cc9061258c565b80156106195780601f106105ee57610100808354040283529160200191610619565b820191906000526020600020905b8154815290600101906020018083116105fc57829003601f168201915b5050509183525050600482015460ff8116151560208301526001600160a01b0361010090910481166040830152600590920154909116606090910152611be4565b60058101546040516001600160a01b03909116903390600080516020612a2983398151915290600090a35050565b6001600160a01b038116600090815260208181526040808320805482518185028101850190935280835260609492939192909184015b8282101561047a5783829060005260206000209060070201604051806101000160405290816000820154815260200160018201548152602001600282015481526020016003820180546107109061258c565b80601f016020809104026020016040519081016040528092919081815260200182805461073c9061258c565b80156107895780601f1061075e57610100808354040283529160200191610789565b820191906000526020600020905b81548152906001019060200180831161076c57829003601f168201915b50505091835250506004828101546001600160a01b03908116602084015260058401549081166040840152606090920191600160a01b900460ff16908111156107d4576107d4612222565b60048111156107e5576107e5612222565b8152602001600682015481525050815260200190600101906106be565b6008546040516370a0823160e01b815284916001600160a01b0316906370a08231906108329033906004016120a9565b602060405180830381865afa15801561084f573d6000803e3d6000fd5b505050506040513d601f19601f82011682018060405250810190610873919061260f565b116108c05760405162461bcd60e51b815260206004820152601f60248201527f4e6f7420656e6f756768205553444320666f72207472616e73616374696f6e0060448201526064016104de565b336000818152600160208181526040808420546001600160a01b0388168086528286208054845160e0810186528481528087018281529581018d8152606082018c8152608083018b905260a083019b909b5260c08201949094528787528188018355918852949096208651600686029091019081559251948301949094559251600282015593519193909291829190600382019061095e9082612677565b50608082015160048201805460a08501516001600160a81b0319909116921515610100600160a81b031916929092176101006001600160a01b039384160217905560c090920151600590910180546001600160a01b03191691909216179055336000908152600160208181526040808420805480850182559085529382902085516006909502019384559084015191830191909155820151600282015560608201518291906003820190610a129082612677565b50608082015160048201805460a08501516001600160a81b0319909116921515610100600160a81b031916929092176101006001600160a01b039384160217905560c090920151600590910180546001600160a01b031916918316919091179055604051908616903390600080516020612a2983398151915290600090a3505050505050565b60016020528160005260406000208181548110610ab457600080fd5b906000526020600020906006020160009150915050806000015490806001015490806002015490806003018054610aea9061258c565b80601f0160208091040260200160405190810160405280929190818152602001828054610b169061258c565b8015610b635780601f10610b3857610100808354040283529160200191610b63565b820191906000526020600020905b815481529060010190602001808311610b4657829003601f168201915b5050506004840154600590940154929360ff8116936001600160a01b036101009092048216935016905087565b336000908152602081905260408120805484908110610bb157610bb16125c6565b906000526020600020906007020160405180610100016040529081600082015481526020016001820154815260200160028201548152602001600382018054610bf99061258c565b80601f0160208091040260200160405190810160405280929190818152602001828054610c259061258c565b8015610c725780601f10610c4757610100808354040283529160200191610c72565b820191906000526020600020905b815481529060010190602001808311610c5557829003601f168201915b50505091835250506004828101546001600160a01b03908116602084015260058401549081166040840152606090920191600160a01b900460ff1690811115610cbd57610cbd612222565b6004811115610cce57610cce612222565b81526020016006820154815250509050336001600160a01b03168160a001516001600160a01b03161480610d0e575060808101516001600160a01b031633145b610d6a5760405162461bcd60e51b815260206004820152602760248201527f4f6e6c7920667265656c616e636572206f7220636c69656e742063616e2063616044820152666c6c207468697360c81b60648201526084016104de565b60a08101516001600160a01b031660009081526020818152604082209083015181548110610d9a57610d9a6125c6565b6000918252602080832060808601516001600160a01b0316845290839052604083208551815460079094029092019450918110610dd957610dd96125c6565b9060005260206000209060070201905083826003019081610dfa9190612677565b5060038101610e098582612677565b5082608001516001600160a01b03168360a001516001600160a01b0316600080516020612a2983398151915260405160405180910390a35050505050565b3460036000828254610e59919061274c565b9091555050565b336000908152600160205260408120805485908110610e8157610e816125c6565b60009182526020909120600690910201600481015490915060ff1615610eb95760405162461bcd60e51b81526004016104de906125dc565b60058101546001600160a01b03163314610f2a5760405162461bcd60e51b815260206004820152602c60248201527f4f6e6c792061737369676e656420667265656c616e6365722063616e2061636360448201526b195c1d081c1c9bdc1bdcd85b60a21b60648201526084016104de565b60048101805460ff1916600117905560408051610120810190915260009080610f5660208701876120d9565b6001600160a01b03168152602001856020016020810190610f7791906120d9565b6001600160a01b039081168252306020830152600454600160a01b900461ffff16604080840191909152600554909116606080840191909152608090920191610fc591908801908801612765565b63ffffffff16815260006020820152606080870135604083015201610fed608087018761278b565b8080601f01602080910402602001604051908101604052809392919081815260200183838082843760009201919091525050509152506008546004848101546040516323b872dd60e01b81526101009091046001600160a01b03908116928201929092523060248201526044810187905292935016906323b872dd906064016020604051808303816000875af115801561108b573d6000803e3d6000fd5b505050506040513d601f19601f820116820180604052508101906110af91906127d8565b5060085460065460405163095ea7b360e01b81526001600160a01b0391821660048201526024810186905291169063095ea7b3906044016020604051808303816000875af1158015611105573d6000803e3d6000fd5b505050506040513d601f19601f8201168201806040525081019061112991906127d8565b5060075460048054604051633f2db03760e01b81526000936001600160a01b0390811693633f2db03793611165938893909116918791016127fa565b6020604051808303816000875af1158015611184573d6000803e3d6000fd5b505050506040513d601f19601f820116820180604052508101906111a8919061260f565b60048401546001600160a01b036101009182900416600090815260208181526040808320543384528184205482519586018352818652928501839052600289015491850191909152600388018054959650909491939160608301919061120d9061258c565b80601f01602080910402602001604051908101604052809291908181526020018280546112399061258c565b80156112865780601f1061125b57610100808354040283529160200191611286565b820191906000526020600020905b81548152906001019060200180831161126957829003601f168201915b505050918352505060048801546001600160a01b03610100909104811660208301526005890154166040820152606001600181526020908101869052336000908152808252604080822080546001818101835591845292849020855160079094020192835592840151928201929092559082015160028201556060820151919250829160038201906113189082612677565b506080820151600482810180546001600160a01b03199081166001600160a01b039485161790915560a085015160058501805492831691909416908117845560c086015193926001600160a81b03199092161790600160a01b90849081111561138357611383612222565b021790555060e09190910151600690910155600486015461010090046001600160a01b031660009081526020818152604080832080546001808201835591855293839020855160079095020193845591840151918301919091558201516002820155606082015182919060038201906113fc9082612677565b506080820151600482810180546001600160a01b03199081166001600160a01b039485161790915560a085015160058501805492831691909416908117845560c086015193926001600160a81b03199092161790600160a01b90849081111561146757611467612222565b021790555060e0820151816006015550506114b5866040518060e00160405290816000820154815260200160018201548152602001600282015481526020016003820180546105a09061258c565b600486015460058701546040516101009092046001600160a01b0390811692911690600080516020612a2983398151915290600090a3505050505050505050565b336000908152600160205260408120805483908110611517576115176125c6565b60009182526020909120600690910201600481015490915060ff161561154f5760405162461bcd60e51b81526004016104de906125dc565b60058101546001600160a01b031633146115c05760405162461bcd60e51b815260206004820152602c60248201527f4f6e6c792061737369676e656420667265656c616e6365722063616e2072656a60448201526b1958dd081c1c9bdc1bdcd85b60a21b60648201526084016104de565b60048101805460ff191690556040805160e081018252825481526001830154602082015260028301549181019190915260038201805461160c929184916060840191906105a09061258c565b600581015460048201546040516001600160a01b039283169261010090920490911690600080516020612a2983398151915290600090a35050565b336000908152602081905260408120805483908110611668576116686125c6565b9060005260206000209060070201604051806101000160405290816000820154815260200160018201548152602001600282015481526020016003820180546116b09061258c565b80601f01602080910402602001604051908101604052809291908181526020018280546116dc9061258c565b80156117295780601f106116fe57610100808354040283529160200191611729565b820191906000526020600020905b81548152906001019060200180831161170c57829003601f168201915b50505091835250506004828101546001600160a01b03908116602084015260058401549081166040840152606090920191600160a01b900460ff169081111561177457611774612222565b600481111561178557611785612222565b81526020016006820154815250509050336001600160a01b031681608001516001600160a01b0316146117f65760405162461bcd60e51b81526020600482015260196024820152784f6e6c7920636c69656e742063616e2063616c6c207468697360381b60448201526064016104de565b611801816004611f77565b61180d6012600a6129b7565b604082015161181d90600a6129c6565b61182791906129dd565b60a08201516001600160a01b03166000908152600260205260408120805490919061185390849061274c565b9091555061186590506012600a6129b7565b604082015161187590600a6129c6565b61187f91906129dd565b60808201516001600160a01b0316600090815260026020526040812080549091906118ab90849061274c565b9250508190555080608001516001600160a01b03168160a001516001600160a01b0316600080516020612a2983398151915260405160405180910390a35050565b33600090815260208190526040812080548390811061190d5761190d6125c6565b9060005260206000209060070201604051806101000160405290816000820154815260200160018201548152602001600282015481526020016003820180546119559061258c565b80601f01602080910402602001604051908101604052809291908181526020018280546119819061258c565b80156119ce5780601f106119a3576101008083540402835291602001916119ce565b820191906000526020600020905b8154815290600101906020018083116119b157829003601f168201915b50505091835250506004828101546001600160a01b03908116602084015260058401549081166040840152606090920191600160a01b900460ff1690811115611a1957611a19612222565b6004811115611a2a57611a2a612222565b81526020016006820154815250509050336001600160a01b03168160a001516001600160a01b031614611a9f5760405162461bcd60e51b815260206004820152601d60248201527f4f6e6c7920667265656c616e6365722063616e2063616c6c207468697300000060448201526064016104de565b611aaa816002611f77565b80608001516001600160a01b03168160a001516001600160a01b0316600080516020612a2983398151915260405160405180910390a35050565b60006020528160005260406000208181548110611b0057600080fd5b906000526020600020906007020160009150915050806000015490806001015490806002015490806003018054611b369061258c565b80601f0160208091040260200160405190810160405280929190818152602001828054611b629061258c565b8015611baf5780601f10611b8457610100808354040283529160200191611baf565b820191906000526020600020905b815481529060010190602001808311611b9257829003601f168201915b505050506004830154600584015460069094015492936001600160a01b03918216939181169250600160a01b900460ff169088565b60c08101516001600160a01b0316600090815260016020908152604082209083015181548110611c1657611c166125c6565b6000918252602080832060a08601516001600160a01b031684526001909152604083208551815460069094029092019450918110611c5657611c566125c6565b6000918252602080832060c08701516001600160a01b03908116855260019283905260408086205460a08a01519092168652909420546006909302019350821115611d815760c08501516001600160a01b0316600090815260016020819052604090912090611cc590846129ff565b81548110611cd557611cd56125c6565b6000918252602080832088820151600693909302016001818101939093558851815560c08901516001600160a01b03168452919052604090912080549195509080611d2257611d22612a12565b600082815260208120600660001990930192830201818155600181018290556002810182905590611d566003830182612053565b506004810180546001600160a81b031916905560050180546001600160a01b03191690559055611e07565b60c08501516001600160a01b03166000908152600160205260409020805480611dac57611dac612a12565b600082815260208120600660001990930192830201818155600181018290556002810182905590611de06003830182612053565b506004810180546001600160a81b031916905560050180546001600160a01b031916905590555b6001811115611eea5760a08501516001600160a01b0316600090815260016020819052604090912090611e3a90836129ff565b81548110611e4a57611e4a6125c6565b60009182526020808320885160069093020191825560a08801516001600160a01b0316835260019052604090912080549194509080611e8b57611e8b612a12565b600082815260208120600660001990930192830201818155600181018290556002810182905590611ebf6003830182612053565b506004810180546001600160a81b031916905560050180546001600160a01b03191690559055611f70565b60a08501516001600160a01b03166000908152600160205260409020805480611f1557611f15612a12565b600082815260208120600660001990930192830201818155600181018290556002810182905590611f496003830182612053565b506004810180546001600160a81b031916905560050180546001600160a01b031916905590555b5050505050565b60a08201516001600160a01b031660009081526020818152604082209084015181548110611fa757611fa76125c6565b6000918252602080832060808701516001600160a01b0316845290839052604083208651815460079094029092019450918110611fe657611fe66125c6565b90600052602060002090600702019050828260050160146101000a81548160ff0219169083600481111561201c5761201c612222565b021790555060058101805484919060ff60a01b1916600160a01b83600481111561204857612048612222565b021790555050505050565b50805461205f9061258c565b6000825580601f1061206f575050565b601f01602090049060005260206000209081019061208d9190612090565b50565b5b808211156120a55760008155600101612091565b5090565b6001600160a01b0391909116815260200190565b80356001600160a01b03811681146120d457600080fd5b919050565b6000602082840312156120eb57600080fd5b6120f4826120bd565b9392505050565b6000815180845260005b8181101561212157602081850181015186830182015201612105565b506000602082860101526020601f19601f83011685010191505092915050565b6001600160a01b03169052565b60006020808301818452808551808352604092508286019150828160051b87010184880160005b838110156121fb57603f19898403018552815160e0815185528882015189860152878201518886015260608083015182828801526121b5838801826120fb565b60808581015115159089015260a0808601516001600160a01b03908116918a019190915260c0958601511694909701939093525050509386019390860190600101612175565b509098975050505050505050565b60006020828403121561221b57600080fd5b5035919050565b634e487b7160e01b600052602160045260246000fd5b6005811061225657634e487b7160e01b600052602160045260246000fd5b9052565b60006020808301818452808551808352604092508286019150828160051b87010184880160005b838110156121fb57603f198984030185528151610100815185528882015189860152878201518886015260608083015182828801526122c2838801826120fb565b6080858101516001600160a01b03908116918a019190915260a0808701519091169089015260c0808601519194509250905061230082880182612238565b505060e09182015194909101939093529386019390860190600101612281565b634e487b7160e01b600052604160045260246000fd5b600082601f83011261234757600080fd5b81356001600160401b038082111561236157612361612320565b604051601f8301601f19908116603f0116810190828211818310171561238957612389612320565b816040528381528660208588010111156123a257600080fd5b836020870160208301376000602085830101528094505050505092915050565b6000806000606084860312156123d757600080fd5b833592506123e7602085016120bd565b915060408401356001600160401b0381111561240257600080fd5b61240e86828701612336565b9150509250925092565b6000806040838503121561242b57600080fd5b612434836120bd565b946020939093013593505050565b87815286602082015285604082015260e06060820152600061246760e08301876120fb565b9415156080830152506001600160a01b0392831660a0820152911660c090910152949350505050565b600080604083850312156124a357600080fd5b8235915060208301356001600160401b038111156124c057600080fd5b6124cc85828601612336565b9150509250929050565b6000806000606084860312156124eb57600080fd5b8335925060208401356001600160401b0381111561250857600080fd5b840160a0818703121561251a57600080fd5b929592945050506040919091013590565b60006101008a8352896020840152886040840152806060840152612551818401896120fb565b6001600160a01b038881166080860152871660a08501529150612579905060c0830185612238565b8260e08301529998505050505050505050565b600181811c908216806125a057607f821691505b6020821081036125c057634e487b7160e01b600052602260045260246000fd5b50919050565b634e487b7160e01b600052603260045260246000fd5b602080825260199082015278141c9bdc1bdcd85b08185b1c9958591e481858d8d95c1d1959603a1b604082015260600190565b60006020828403121561262157600080fd5b5051919050565b601f82111561267257600081815260208120601f850160051c8101602086101561264f5750805b601f850160051c820191505b8181101561266e5782815560010161265b565b5050505b505050565b81516001600160401b0381111561269057612690612320565b6126a48161269e845461258c565b84612628565b602080601f8311600181146126d957600084156126c15750858301515b600019600386901b1c1916600185901b17855561266e565b600085815260208120601f198616915b82811015612708578886015182559484019460019091019084016126e9565b50858210156127265787850151600019600388901b60f8161c191681555b5050505050600190811b01905550565b634e487b7160e01b600052601160045260246000fd5b8082018082111561275f5761275f612736565b92915050565b60006020828403121561277757600080fd5b813563ffffffff811681146120f457600080fd5b6000808335601e198436030181126127a257600080fd5b8301803591506001600160401b038211156127bc57600080fd5b6020019150368190038213156127d157600080fd5b9250929050565b6000602082840312156127ea57600080fd5b815180151581146120f457600080fd5b6060815261280c606082018551612141565b600060208501516128206080840182612141565b50604085015161283360a0840182612141565b50606085015161ffff1660c0830152608085015161285460e0840182612141565b5060a085015161010061286e8185018363ffffffff169052565b60c087015191506101206128898186018463ffffffff169052565b60e08801516101408601528188015192508061016086015250506128b16101808401826120fb565b9150506128c16020830185612141565b61ffff83166040830152949350505050565b600181815b8085111561290e5781600019048211156128f4576128f4612736565b8085161561290157918102915b93841c93908002906128d8565b509250929050565b6000826129255750600161275f565b816129325750600061275f565b816001811461294857600281146129525761296e565b600191505061275f565b60ff84111561296357612963612736565b50506001821b61275f565b5060208310610133831016604e8410600b8410161715612991575081810a61275f565b61299b83836128d3565b80600019048211156129af576129af612736565b029392505050565b60006120f460ff841683612916565b808202811582820484141761275f5761275f612736565b6000826129fa57634e487b7160e01b600052601260045260246000fd5b500490565b8181038181111561275f5761275f612736565b634e487b7160e01b600052603160045260246000fdfea9acac058b16fcc9acf1df452cc5c85909d0310c119dc4499b58e8c13cd2d045a264697066735822122076d9ff17b20ff18a88cd183672320207bb9b362663827d838949552a250961ab64736f6c63430008150033",
  "linkReferences": {},
  "deployedLinkReferences": {}
}