{
  "_format": "hh-sol-artifact-1",
  "contractName": "ContractsManager",
  "sourceName": "contracts/ContractsManager.sol",
  "abi": [
    {
      "inputs": [
        {
          "internalType": "address",
          "name": "usdcContractAddress",
          "type": "address"
        },
        {
          "internalType": "address",
          "name": "_arbitrator",
          "type": "address"
        }
      ],
      "stateMutability": "nonpayable",
      "type": "constructor"
    },
    {
      "anonymous": false,
      "inputs": [
        {
          "indexed": true,
          "internalType": "address",
          "name": "client",
          "type": "address"
        },
        {
          "indexed": true,
          "internalType": "address",
          "name": "freelancer",
          "type": "address"
        }
      ],
      "name": "ContractUpdate",
      "type": "event"
    },
    {
      "inputs": [],
      "name": "TokenContract",
      "outputs": [
        {
          "internalType": "contract IERC20",
          "name": "",
          "type": "address"
        }
      ],
      "stateMutability": "view",
      "type": "function"
    },
    {
      "inputs": [],
      "name": "UnicrowContract",
      "outputs": [
        {
          "internalType": "contract IUnicrow",
          "name": "",
          "type": "address"
        }
      ],
      "stateMutability": "view",
      "type": "function"
    },
    {
      "inputs": [
        {
          "internalType": "uint256",
          "name": "_proposalId",
          "type": "uint256"
        },
        {
          "components": [
            {
              "internalType": "address",
              "name": "buyer",
              "type": "address"
            },
            {
              "internalType": "address",
              "name": "seller",
              "type": "address"
            },
            {
              "internalType": "uint32",
              "name": "challengePeriod",
              "type": "uint32"
            },
            {
              "internalType": "uint256",
              "name": "amount",
              "type": "uint256"
            },
            {
              "internalType": "string",
              "name": "paymentReference",
              "type": "string"
            }
          ],
          "internalType": "struct ContractsManager.InternalEscrowInput",
          "name": "contract_params",
          "type": "tuple"
        },
        {
          "internalType": "uint256",
          "name": "_amount",
          "type": "uint256"
        }
      ],
      "name": "acceptProposal",
      "outputs": [],
      "stateMutability": "nonpayable",
      "type": "function"
    },
    {
      "inputs": [],
      "name": "balance",
      "outputs": [
        {
          "internalType": "uint256",
          "name": "",
          "type": "uint256"
        }
      ],
      "stateMutability": "view",
      "type": "function"
    },
    {
      "inputs": [
        {
          "internalType": "uint256",
          "name": "_proposalId",
          "type": "uint256"
        }
      ],
      "name": "cancle_proposal",
      "outputs": [],
      "stateMutability": "nonpayable",
      "type": "function"
    },
    {
      "inputs": [
        {
          "internalType": "address",
          "name": "",
          "type": "address"
        },
        {
          "internalType": "uint256",
          "name": "",
          "type": "uint256"
        }
      ],
      "name": "contracts",
      "outputs": [
        {
          "internalType": "uint256",
          "name": "clientContractId",
          "type": "uint256"
        },
        {
          "internalType": "uint256",
          "name": "freelancerContractId",
          "type": "uint256"
        },
        {
          "internalType": "uint256",
          "name": "amount",
          "type": "uint256"
        },
        {
          "internalType": "string",
          "name": "data",
          "type": "string"
        },
        {
          "internalType": "address",
          "name": "client",
          "type": "address"
        },
        {
          "internalType": "address",
          "name": "freelancer",
          "type": "address"
        },
        {
          "internalType": "enum ContractsManager.contractState",
          "name": "state",
          "type": "uint8"
        },
        {
          "internalType": "uint256",
          "name": "escrow_id",
          "type": "uint256"
        }
      ],
      "stateMutability": "view",
      "type": "function"
    },
    {
      "inputs": [
        {
          "internalType": "uint256",
          "name": "_amount",
          "type": "uint256"
        },
        {
          "internalType": "address",
          "name": "_freelancer",
          "type": "address"
        },
        {
          "internalType": "string",
          "name": "_data",
          "type": "string"
        }
      ],
      "name": "createProposal",
      "outputs": [],
      "stateMutability": "nonpayable",
      "type": "function"
    },
    {
      "inputs": [],
      "name": "get_contracts",
      "outputs": [
        {
          "components": [
            {
              "internalType": "uint256",
              "name": "clientContractId",
              "type": "uint256"
            },
            {
              "internalType": "uint256",
              "name": "freelancerContractId",
              "type": "uint256"
            },
            {
              "internalType": "uint256",
              "name": "amount",
              "type": "uint256"
            },
            {
              "internalType": "string",
              "name": "data",
              "type": "string"
            },
            {
              "internalType": "address",
              "name": "client",
              "type": "address"
            },
            {
              "internalType": "address",
              "name": "freelancer",
              "type": "address"
            },
            {
              "internalType": "enum ContractsManager.contractState",
              "name": "state",
              "type": "uint8"
            },
            {
              "internalType": "uint256",
              "name": "escrow_id",
              "type": "uint256"
            }
          ],
          "internalType": "struct ContractsManager.ContractDetails[]",
          "name": "",
          "type": "tuple[]"
        }
      ],
      "stateMutability": "view",
      "type": "function"
    },
    {
      "inputs": [],
      "name": "get_proposals",
      "outputs": [
        {
          "components": [
            {
              "internalType": "uint256",
              "name": "clientProposalId",
              "type": "uint256"
            },
            {
              "internalType": "uint256",
              "name": "freelancerProposalId",
              "type": "uint256"
            },
            {
              "internalType": "uint256",
              "name": "amount",
              "type": "uint256"
            },
            {
              "internalType": "string",
              "name": "data",
              "type": "string"
            },
            {
              "internalType": "bool",
              "name": "isAccepted",
              "type": "bool"
            },
            {
              "internalType": "address",
              "name": "client",
              "type": "address"
            },
            {
              "internalType": "address",
              "name": "freelancer",
              "type": "address"
            }
          ],
          "internalType": "struct ContractsManager.Proposal[]",
          "name": "",
          "type": "tuple[]"
        }
      ],
      "stateMutability": "view",
      "type": "function"
    },
    {
      "inputs": [
        {
          "internalType": "address",
          "name": "",
          "type": "address"
        },
        {
          "internalType": "uint256",
          "name": "",
          "type": "uint256"
        }
      ],
      "name": "proposals",
      "outputs": [
        {
          "internalType": "uint256",
          "name": "clientProposalId",
          "type": "uint256"
        },
        {
          "internalType": "uint256",
          "name": "freelancerProposalId",
          "type": "uint256"
        },
        {
          "internalType": "uint256",
          "name": "amount",
          "type": "uint256"
        },
        {
          "internalType": "string",
          "name": "data",
          "type": "string"
        },
        {
          "internalType": "bool",
          "name": "isAccepted",
          "type": "bool"
        },
        {
          "internalType": "address",
          "name": "client",
          "type": "address"
        },
        {
          "internalType": "address",
          "name": "freelancer",
          "type": "address"
        }
      ],
      "stateMutability": "view",
      "type": "function"
    },
    {
      "inputs": [],
      "name": "receiveEther",
      "outputs": [],
      "stateMutability": "payable",
      "type": "function"
    },
    {
      "inputs": [
        {
          "internalType": "uint256",
          "name": "_proposalId",
          "type": "uint256"
        }
      ],
      "name": "rejectProposal",
      "outputs": [],
      "stateMutability": "nonpayable",
      "type": "function"
    },
    {
      "inputs": [
        {
          "internalType": "uint256",
          "name": "_contractId",
          "type": "uint256"
        }
      ],
      "name": "release_payement",
      "outputs": [],
      "stateMutability": "nonpayable",
      "type": "function"
    },
    {
      "inputs": [
        {
          "internalType": "uint256",
          "name": "_contractId",
          "type": "uint256"
        }
      ],
      "name": "request_payement",
      "outputs": [],
      "stateMutability": "nonpayable",
      "type": "function"
    },
    {
      "inputs": [
        {
          "internalType": "address",
          "name": "",
          "type": "address"
        }
      ],
      "name": "score",
      "outputs": [
        {
          "internalType": "uint256",
          "name": "",
          "type": "uint256"
        }
      ],
      "stateMutability": "view",
      "type": "function"
    },
    {
      "inputs": [
        {
          "internalType": "uint256",
          "name": "_contractId",
          "type": "uint256"
        },
        {
          "internalType": "string",
          "name": "_new_data",
          "type": "string"
        }
      ],
      "name": "update_contract_data",
      "outputs": [],
      "stateMutability": "nonpayable",
      "type": "function"
    }
  ],
  "bytecode": "0x608060405260048054600560a11b61ffff60a01b19909116179055600680546001600160a01b031916736d98b03c09ead582a77c093bdb2d3e85683aa9561790553480156200004d57600080fd5b5060405162002b7738038062002b778339810160408190526200007091620000db565b600654600780546001600160a01b039283166001600160a01b031991821617909155600880548216948316948517905560058054821690941790935560048054909316911617905562000113565b80516001600160a01b0381168114620000d657600080fd5b919050565b60008060408385031215620000ef57600080fd5b620000fa83620000be565b91506200010a60208401620000be565b90509250929050565b612a5480620001236000396000f3fe6080604052600436106100d35760003560e01c8063a8e29f4e1161007a578063a8e29f4e14610206578063b69ef8a814610226578063bc28d8781461023c578063c70677521461025c578063d19840431461027e578063d49de204146102a0578063d828ee02146102c0578063ed23f8c3146102e057600080fd5b80630f256276146100d85780635c7e99801461010e578063776f3843146101305780637930c1e91461016b5780638e23a2f51461018b5780639688738b146101be578063a14ae4cb146101de578063a3912ec8146101fe575b600080fd5b3480156100e457600080fd5b506007546100f8906001600160a01b031681565b604051610105919061207f565b60405180910390f35b34801561011a57600080fd5b5061012e610129366004612093565b610314565b005b34801561013c57600080fd5b5061015d61014b3660046120c8565b60026020526000908152604090205481565b604051908152602001610105565b34801561017757600080fd5b5061012e61018636600461218c565b610517565b34801561019757600080fd5b506101ab6101a63660046121e2565b6107ad565b604051610105979695949392919061225f565b3480156101ca57600080fd5b506008546100f8906001600160a01b031681565b3480156101ea57600080fd5b5061012e6101f93660046122ad565b6108a5565b61012e610b5c565b34801561021257600080fd5b5061012e6102213660046122f3565b610b75565b34801561023257600080fd5b5061015d60035481565b34801561024857600080fd5b5061012e610257366004612093565b61120b565b34801561026857600080fd5b5061027161135c565b6040516101059190612348565b34801561028a57600080fd5b506102936114ac565b604051610105919061243b565b3480156102ac57600080fd5b5061012e6102bb366004612093565b61161d565b3480156102cc57600080fd5b5061012e6102db366004612093565b6118c2565b3480156102ec57600080fd5b506103006102fb3660046121e2565b611aba565b604051610105989796959493929190612501565b33600090815260016020526040812080548390811061033557610335612562565b60009182526020909120600690910201600481015490915060ff16156103765760405162461bcd60e51b815260040161036d90612578565b60405180910390fd5b600481015461010090046001600160a01b031633146103e35760405162461bcd60e51b815260206004820152602360248201527f4f6e6c7920636c69656e742063616e2063616e636c65207468652070726f706f6044820152621cd85b60ea1b606482015260840161036d565b60048101805460ff191690556040805160e08101825282548152600183015460208201526002830154918101919091526003820180546104e99291849160608401919061042f906125ab565b80601f016020809104026020016040519081016040528092919081815260200182805461045b906125ab565b80156104a85780601f1061047d576101008083540402835291602001916104a8565b820191906000526020600020905b81548152906001019060200180831161048b57829003601f168201915b5050509183525050600482015460ff8116151560208301526001600160a01b0361010090910481166040830152600590920154909116606090910152611bba565b60058101546040516001600160a01b039091169033906000805160206129ff83398151915290600090a35050565b6008546040516370a0823160e01b815284916001600160a01b0316906370a082319061054790339060040161207f565b602060405180830381865afa158015610564573d6000803e3d6000fd5b505050506040513d601f19601f8201168201806040525081019061058891906125e5565b116105d55760405162461bcd60e51b815260206004820152601f60248201527f4e6f7420656e6f756768205553444320666f72207472616e73616374696f6e00604482015260640161036d565b336000818152600160208181526040808420546001600160a01b0388168086528286208054845160e0810186528481528087018281529581018d8152606082018c8152608083018b905260a083019b909b5260c082019490945287875281880183559188529490962086516006860290910190815592519483019490945592516002820155935191939092918291906003820190610673908261264d565b50608082015160048201805460a08501516001600160a81b0319909116921515610100600160a81b031916929092176101006001600160a01b039384160217905560c090920151600590910180546001600160a01b03191691909216179055336000908152600160208181526040808420805480850182559085529382902085516006909502019384559084015191830191909155820151600282015560608201518291906003820190610727908261264d565b50608082015160048201805460a08501516001600160a81b0319909116921515610100600160a81b031916929092176101006001600160a01b039384160217905560c090920151600590910180546001600160a01b0319169183169190911790556040519086169033906000805160206129ff83398151915290600090a3505050505050565b600160205281600052604060002081815481106107c957600080fd5b9060005260206000209060060201600091509150508060000154908060010154908060020154908060030180546107ff906125ab565b80601f016020809104026020016040519081016040528092919081815260200182805461082b906125ab565b80156108785780601f1061084d57610100808354040283529160200191610878565b820191906000526020600020905b81548152906001019060200180831161085b57829003601f168201915b5050506004840154600590940154929360ff8116936001600160a01b036101009092048216935016905087565b3360009081526020819052604081208054849081106108c6576108c6612562565b90600052602060002090600702016040518061010001604052908160008201548152602001600182015481526020016002820154815260200160038201805461090e906125ab565b80601f016020809104026020016040519081016040528092919081815260200182805461093a906125ab565b80156109875780601f1061095c57610100808354040283529160200191610987565b820191906000526020600020905b81548152906001019060200180831161096a57829003601f168201915b50505091835250506004828101546001600160a01b03908116602084015260058401549081166040840152606090920191600160a01b900460ff16908111156109d2576109d2612403565b60048111156109e3576109e3612403565b81526020016006820154815250509050336001600160a01b03168160a001516001600160a01b03161480610a23575060808101516001600160a01b031633145b610a7f5760405162461bcd60e51b815260206004820152602760248201527f4f6e6c7920667265656c616e636572206f7220636c69656e742063616e2063616044820152666c6c207468697360c81b606482015260840161036d565b60a08101516001600160a01b031660009081526020818152604082209083015181548110610aaf57610aaf612562565b6000918252602080832060808601516001600160a01b0316845290839052604083208551815460079094029092019450918110610aee57610aee612562565b9060005260206000209060070201905083826003019081610b0f919061264d565b5060038101610b1e858261264d565b5082608001516001600160a01b03168360a001516001600160a01b03166000805160206129ff83398151915260405160405180910390a35050505050565b3460036000828254610b6e9190612722565b9091555050565b336000908152600160205260408120805485908110610b9657610b96612562565b60009182526020909120600690910201600481015490915060ff1615610bce5760405162461bcd60e51b815260040161036d90612578565b60058101546001600160a01b03163314610c3f5760405162461bcd60e51b815260206004820152602c60248201527f4f6e6c792061737369676e656420667265656c616e6365722063616e2061636360448201526b195c1d081c1c9bdc1bdcd85b60a21b606482015260840161036d565b60048101805460ff1916600117905560408051610120810190915260009080610c6b60208701876120c8565b6001600160a01b03168152602001856020016020810190610c8c91906120c8565b6001600160a01b039081168252306020830152600454600160a01b900461ffff16604080840191909152600554909116606080840191909152608090920191610cda9190880190880161273b565b63ffffffff16815260006020820152606080870135604083015201610d026080870187612761565b8080601f01602080910402602001604051908101604052809392919081815260200183838082843760009201919091525050509152506008546004848101546040516323b872dd60e01b81526101009091046001600160a01b03908116928201929092523060248201526044810187905292935016906323b872dd906064016020604051808303816000875af1158015610da0573d6000803e3d6000fd5b505050506040513d601f19601f82011682018060405250810190610dc491906127ae565b5060085460065460405163095ea7b360e01b81526001600160a01b0391821660048201526024810186905291169063095ea7b3906044016020604051808303816000875af1158015610e1a573d6000803e3d6000fd5b505050506040513d601f19601f82011682018060405250810190610e3e91906127ae565b5060075460048054604051633f2db03760e01b81526000936001600160a01b0390811693633f2db03793610e7a938893909116918791016127d0565b6020604051808303816000875af1158015610e99573d6000803e3d6000fd5b505050506040513d601f19601f82011682018060405250810190610ebd91906125e5565b60048401546001600160a01b0361010091829004166000908152602081815260408083205433845281842054825195860183528186529285018390526002890154918501919091526003880180549596509094919391606083019190610f22906125ab565b80601f0160208091040260200160405190810160405280929190818152602001828054610f4e906125ab565b8015610f9b5780601f10610f7057610100808354040283529160200191610f9b565b820191906000526020600020905b815481529060010190602001808311610f7e57829003601f168201915b505050918352505060048801546001600160a01b036101009091048116602083015260058901541660408201526060016001815260209081018690523360009081528082526040808220805460018181018355918452928490208551600790940201928355928401519282019290925590820151600282015560608201519192508291600382019061102d908261264d565b506080820151600482810180546001600160a01b03199081166001600160a01b039485161790915560a085015160058501805492831691909416908117845560c086015193926001600160a81b03199092161790600160a01b90849081111561109857611098612403565b021790555060e09190910151600690910155600486015461010090046001600160a01b03166000908152602081815260408083208054600180820183559185529383902085516007909502019384559184015191830191909155820151600282015560608201518291906003820190611111908261264d565b506080820151600482810180546001600160a01b03199081166001600160a01b039485161790915560a085015160058501805492831691909416908117845560c086015193926001600160a81b03199092161790600160a01b90849081111561117c5761117c612403565b021790555060e0820151816006015550506111ca866040518060e001604052908160008201548152602001600182015481526020016002820154815260200160038201805461042f906125ab565b600486015460058701546040516101009092046001600160a01b03908116929116906000805160206129ff83398151915290600090a3505050505050505050565b33600090815260016020526040812080548390811061122c5761122c612562565b60009182526020909120600690910201600481015490915060ff16156112645760405162461bcd60e51b815260040161036d90612578565b60058101546001600160a01b031633146112d55760405162461bcd60e51b815260206004820152602c60248201527f4f6e6c792061737369676e656420667265656c616e6365722063616e2072656a60448201526b1958dd081c1c9bdc1bdcd85b60a21b606482015260840161036d565b60048101805460ff191690556040805160e08101825282548152600183015460208201526002830154918101919091526003820180546113219291849160608401919061042f906125ab565b600581015460048201546040516001600160a01b0392831692610100909204909116906000805160206129ff83398151915290600090a35050565b336000908152600160209081526040808320805482518185028101850190935280835260609492939192909184015b828210156114a357838290600052602060002090600602016040518060e00160405290816000820154815260200160018201548152602001600282015481526020016003820180546113dc906125ab565b80601f0160208091040260200160405190810160405280929190818152602001828054611408906125ab565b80156114555780601f1061142a57610100808354040283529160200191611455565b820191906000526020600020905b81548152906001019060200180831161143857829003601f168201915b5050509183525050600482015460ff811615156020808401919091526001600160a01b036101009092048216604084015260059093015416606090910152908252600192909201910161138b565b50505050905090565b33600090815260208181526040808320805482518185028101850190935280835260609492939192909184015b828210156114a357838290600052602060002090600702016040518061010001604052908160008201548152602001600182015481526020016002820154815260200160038201805461152b906125ab565b80601f0160208091040260200160405190810160405280929190818152602001828054611557906125ab565b80156115a45780601f10611579576101008083540402835291602001916115a4565b820191906000526020600020905b81548152906001019060200180831161158757829003601f168201915b50505091835250506004828101546001600160a01b03908116602084015260058401549081166040840152606090920191600160a01b900460ff16908111156115ef576115ef612403565b600481111561160057611600612403565b8152602001600682015481525050815260200190600101906114d9565b33600090815260208190526040812080548390811061163e5761163e612562565b906000526020600020906007020160405180610100016040529081600082015481526020016001820154815260200160028201548152602001600382018054611686906125ab565b80601f01602080910402602001604051908101604052809291908181526020018280546116b2906125ab565b80156116ff5780601f106116d4576101008083540402835291602001916116ff565b820191906000526020600020905b8154815290600101906020018083116116e257829003601f168201915b50505091835250506004828101546001600160a01b03908116602084015260058401549081166040840152606090920191600160a01b900460ff169081111561174a5761174a612403565b600481111561175b5761175b612403565b81526020016006820154815250509050336001600160a01b031681608001516001600160a01b0316146117cc5760405162461bcd60e51b81526020600482015260196024820152784f6e6c7920636c69656e742063616e2063616c6c207468697360381b604482015260640161036d565b6117d7816004611f4d565b6117e36012600a61298d565b60408201516117f390600a61299c565b6117fd91906129b3565b60a08201516001600160a01b031660009081526002602052604081208054909190611829908490612722565b9091555061183b90506012600a61298d565b604082015161184b90600a61299c565b61185591906129b3565b60808201516001600160a01b031660009081526002602052604081208054909190611881908490612722565b9250508190555080608001516001600160a01b03168160a001516001600160a01b03166000805160206129ff83398151915260405160405180910390a35050565b3360009081526020819052604081208054839081106118e3576118e3612562565b90600052602060002090600702016040518061010001604052908160008201548152602001600182015481526020016002820154815260200160038201805461192b906125ab565b80601f0160208091040260200160405190810160405280929190818152602001828054611957906125ab565b80156119a45780601f10611979576101008083540402835291602001916119a4565b820191906000526020600020905b81548152906001019060200180831161198757829003601f168201915b50505091835250506004828101546001600160a01b03908116602084015260058401549081166040840152606090920191600160a01b900460ff16908111156119ef576119ef612403565b6004811115611a0057611a00612403565b81526020016006820154815250509050336001600160a01b03168160a001516001600160a01b031614611a755760405162461bcd60e51b815260206004820152601d60248201527f4f6e6c7920667265656c616e6365722063616e2063616c6c2074686973000000604482015260640161036d565b611a80816002611f4d565b80608001516001600160a01b03168160a001516001600160a01b03166000805160206129ff83398151915260405160405180910390a35050565b60006020528160005260406000208181548110611ad657600080fd5b906000526020600020906007020160009150915050806000015490806001015490806002015490806003018054611b0c906125ab565b80601f0160208091040260200160405190810160405280929190818152602001828054611b38906125ab565b8015611b855780601f10611b5a57610100808354040283529160200191611b85565b820191906000526020600020905b815481529060010190602001808311611b6857829003601f168201915b505050506004830154600584015460069094015492936001600160a01b03918216939181169250600160a01b900460ff169088565b60c08101516001600160a01b0316600090815260016020908152604082209083015181548110611bec57611bec612562565b6000918252602080832060a08601516001600160a01b031684526001909152604083208551815460069094029092019450918110611c2c57611c2c612562565b6000918252602080832060c08701516001600160a01b03908116855260019283905260408086205460a08a01519092168652909420546006909302019350821115611d575760c08501516001600160a01b0316600090815260016020819052604090912090611c9b90846129d5565b81548110611cab57611cab612562565b6000918252602080832088820151600693909302016001818101939093558851815560c08901516001600160a01b03168452919052604090912080549195509080611cf857611cf86129e8565b600082815260208120600660001990930192830201818155600181018290556002810182905590611d2c6003830182612029565b506004810180546001600160a81b031916905560050180546001600160a01b03191690559055611ddd565b60c08501516001600160a01b03166000908152600160205260409020805480611d8257611d826129e8565b600082815260208120600660001990930192830201818155600181018290556002810182905590611db66003830182612029565b506004810180546001600160a81b031916905560050180546001600160a01b031916905590555b6001811115611ec05760a08501516001600160a01b0316600090815260016020819052604090912090611e1090836129d5565b81548110611e2057611e20612562565b60009182526020808320885160069093020191825560a08801516001600160a01b0316835260019052604090912080549194509080611e6157611e616129e8565b600082815260208120600660001990930192830201818155600181018290556002810182905590611e956003830182612029565b506004810180546001600160a81b031916905560050180546001600160a01b03191690559055611f46565b60a08501516001600160a01b03166000908152600160205260409020805480611eeb57611eeb6129e8565b600082815260208120600660001990930192830201818155600181018290556002810182905590611f1f6003830182612029565b506004810180546001600160a81b031916905560050180546001600160a01b031916905590555b5050505050565b60a08201516001600160a01b031660009081526020818152604082209084015181548110611f7d57611f7d612562565b6000918252602080832060808701516001600160a01b0316845290839052604083208651815460079094029092019450918110611fbc57611fbc612562565b90600052602060002090600702019050828260050160146101000a81548160ff02191690836004811115611ff257611ff2612403565b021790555060058101805484919060ff60a01b1916600160a01b83600481111561201e5761201e612403565b021790555050505050565b508054612035906125ab565b6000825580601f10612045575050565b601f0160209004906000526020600020908101906120639190612066565b50565b5b8082111561207b5760008155600101612067565b5090565b6001600160a01b0391909116815260200190565b6000602082840312156120a557600080fd5b5035919050565b80356001600160a01b03811681146120c357600080fd5b919050565b6000602082840312156120da57600080fd5b6120e3826120ac565b9392505050565b634e487b7160e01b600052604160045260246000fd5b600082601f83011261211157600080fd5b81356001600160401b038082111561212b5761212b6120ea565b604051601f8301601f19908116603f01168101908282118183101715612153576121536120ea565b8160405283815286602085880101111561216c57600080fd5b836020870160208301376000602085830101528094505050505092915050565b6000806000606084860312156121a157600080fd5b833592506121b1602085016120ac565b915060408401356001600160401b038111156121cc57600080fd5b6121d886828701612100565b9150509250925092565b600080604083850312156121f557600080fd5b6121fe836120ac565b946020939093013593505050565b6000815180845260005b8181101561223257602081850181015186830182015201612216565b506000602082860101526020601f19601f83011685010191505092915050565b6001600160a01b03169052565b87815286602082015285604082015260e06060820152600061228460e083018761220c565b9415156080830152506001600160a01b0392831660a0820152911660c090910152949350505050565b600080604083850312156122c057600080fd5b8235915060208301356001600160401b038111156122dd57600080fd5b6122e985828601612100565b9150509250929050565b60008060006060848603121561230857600080fd5b8335925060208401356001600160401b0381111561232557600080fd5b840160a0818703121561233757600080fd5b929592945050506040919091013590565b60006020808301818452808551808352604092508286019150828160051b87010184880160005b838110156123f557603f19898403018552815160e0815185528882015189860152878201518886015260608083015182828801526123af8388018261220c565b60808581015115159089015260a0808601516001600160a01b03908116918a019190915260c095860151169490970193909352505050938601939086019060010161236f565b509098975050505050505050565b634e487b7160e01b600052602160045260246000fd5b6005811061243757634e487b7160e01b600052602160045260246000fd5b9052565b60006020808301818452808551808352604092508286019150828160051b87010184880160005b838110156123f557603f198984030185528151610100815185528882015189860152878201518886015260608083015182828801526124a38388018261220c565b6080858101516001600160a01b03908116918a019190915260a0808701519091169089015260c080860151919450925090506124e182880182612419565b505060e09182015194909101939093529386019390860190600101612462565b60006101008a83528960208401528860408401528060608401526125278184018961220c565b6001600160a01b038881166080860152871660a0850152915061254f905060c0830185612419565b8260e08301529998505050505050505050565b634e487b7160e01b600052603260045260246000fd5b602080825260199082015278141c9bdc1bdcd85b08185b1c9958591e481858d8d95c1d1959603a1b604082015260600190565b600181811c908216806125bf57607f821691505b6020821081036125df57634e487b7160e01b600052602260045260246000fd5b50919050565b6000602082840312156125f757600080fd5b5051919050565b601f82111561264857600081815260208120601f850160051c810160208610156126255750805b601f850160051c820191505b8181101561264457828155600101612631565b5050505b505050565b81516001600160401b03811115612666576126666120ea565b61267a8161267484546125ab565b846125fe565b602080601f8311600181146126af57600084156126975750858301515b600019600386901b1c1916600185901b178555612644565b600085815260208120601f198616915b828110156126de578886015182559484019460019091019084016126bf565b50858210156126fc5787850151600019600388901b60f8161c191681555b5050505050600190811b01905550565b634e487b7160e01b600052601160045260246000fd5b808201808211156127355761273561270c565b92915050565b60006020828403121561274d57600080fd5b813563ffffffff811681146120e357600080fd5b6000808335601e1984360301811261277857600080fd5b8301803591506001600160401b0382111561279257600080fd5b6020019150368190038213156127a757600080fd5b9250929050565b6000602082840312156127c057600080fd5b815180151581146120e357600080fd5b606081526127e2606082018551612252565b600060208501516127f66080840182612252565b50604085015161280960a0840182612252565b50606085015161ffff1660c0830152608085015161282a60e0840182612252565b5060a08501516101006128448185018363ffffffff169052565b60c0870151915061012061285f8186018463ffffffff169052565b60e088015161014086015281880151925080610160860152505061288761018084018261220c565b9150506128976020830185612252565b61ffff83166040830152949350505050565b600181815b808511156128e45781600019048211156128ca576128ca61270c565b808516156128d757918102915b93841c93908002906128ae565b509250929050565b6000826128fb57506001612735565b8161290857506000612735565b816001811461291e576002811461292857612944565b6001915050612735565b60ff8411156129395761293961270c565b50506001821b612735565b5060208310610133831016604e8410600b8410161715612967575081810a612735565b61297183836128a9565b80600019048211156129855761298561270c565b029392505050565b60006120e360ff8416836128ec565b80820281158282048414176127355761273561270c565b6000826129d057634e487b7160e01b600052601260045260246000fd5b500490565b818103818111156127355761273561270c565b634e487b7160e01b600052603160045260246000fdfea9acac058b16fcc9acf1df452cc5c85909d0310c119dc4499b58e8c13cd2d045a26469706673582212201fa36f5d9a63c58292dfd96b1205ddc8cd2aea153a4b08bf2eb22a85ee90b67e64736f6c63430008150033",
  "linkReferences": {},
  "deployedLinkReferences": {}
}