{
  "_format": "hh-sol-artifact-1",
  "contractName": "ProfileCreator",
  "sourceName": "contracts/ProfileCreator.sol",
  "abi": [
    {
      "inputs": [],
      "stateMutability": "nonpayable",
      "type": "constructor"
    },
    {
      "inputs": [],
      "name": "PermissionlessCreator",
      "outputs": [
        {
          "internalType": "contract IPermissionlessCreator",
          "name": "",
          "type": "address"
        }
      ],
      "stateMutability": "view",
      "type": "function"
    },
    {
      "inputs": [],
      "name": "balance",
      "outputs": [
        {
          "internalType": "uint256",
          "name": "",
          "type": "uint256"
        }
      ],
      "stateMutability": "view",
      "type": "function"
    },
    {
      "inputs": [
        {
          "components": [
            {
              "internalType": "address",
              "name": "to",
              "type": "address"
            },
            {
              "internalType": "address",
              "name": "followModule",
              "type": "address"
            },
            {
              "internalType": "bytes",
              "name": "followModuleInitData",
              "type": "bytes"
            }
          ],
          "internalType": "struct IPermissionlessCreator.CreateProfileParams",
          "name": "createProfileParams",
          "type": "tuple"
        },
        {
          "internalType": "string",
          "name": "handle",
          "type": "string"
        },
        {
          "internalType": "address[]",
          "name": "delegatedExecutors",
          "type": "address[]"
        }
      ],
      "name": "create_lens_profile",
      "outputs": [
        {
          "internalType": "uint256",
          "name": "profileId",
          "type": "uint256"
        },
        {
          "internalType": "uint256",
          "name": "handleId",
          "type": "uint256"
        }
      ],
      "stateMutability": "nonpayable",
      "type": "function"
    },
    {
      "inputs": [],
      "name": "receiveEther",
      "outputs": [],
      "stateMutability": "payable",
      "type": "function"
    }
  ],
  "bytecode": "0x6080604052600280546001600160a01b0319167336440da1d98ff46637f0b98aaa082bc77977b49b179055600a60035534801561003b57600080fd5b50600254600180546001600160a01b0319166001600160a01b039092169190911790556104738061006d6000396000f3fe60806040526004361061003f5760003560e01c80633ecafc2014610044578063a3912ec81461007e578063b69ef8a814610088578063b9141ce4146100ac575b600080fd5b34801561005057600080fd5b5061006461005f3660046101da565b6100e4565b604080519283526020830191909152015b60405180910390f35b610086610176565b005b34801561009457600080fd5b5061009e60005481565b604051908152602001610075565b3480156100b857600080fd5b506001546100cc906001600160a01b031681565b6040516001600160a01b039091168152602001610075565b600154604051634819e33560e11b815260009182916001600160a01b0390911690639033c66a90610121908a908a908a908a908a90600401610331565b60408051808303816000875af115801561013f573d6000803e3d6000fd5b505050506040513d601f19601f8201168201806040525081019061016391906103f2565b6003829055909890975095505050505050565b346000808282546101879190610416565b9091555050565b60008083601f8401126101a057600080fd5b50813567ffffffffffffffff8111156101b857600080fd5b6020830191508360208260051b85010111156101d357600080fd5b9250929050565b6000806000806000606086880312156101f257600080fd5b853567ffffffffffffffff8082111561020a57600080fd5b908701906060828a03121561021e57600080fd5b9095506020870135908082111561023457600080fd5b818801915088601f83011261024857600080fd5b81358181111561025757600080fd5b89602082850101111561026957600080fd5b60208301965080955050604088013591508082111561028757600080fd5b506102948882890161018e565b969995985093965092949392505050565b80356001600160a01b03811681146102bc57600080fd5b919050565b81835281816020850137506000828201602090810191909152601f909101601f19169091010190565b8183526000602080850194508260005b85811015610326576001600160a01b03610313836102a5565b16875295820195908201906001016102fa565b509495945050505050565b6060815260006001600160a01b0380610349896102a5565b1660608401528061035c60208a016102a5565b166080840152506040870135601e1988360301811261037a57600080fd5b870160208101903567ffffffffffffffff81111561039757600080fd5b8036038213156103a657600080fd5b606060a08501526103bb60c0850182846102c1565b91505082810360208401526103d18187896102c1565b905082810360408401526103e68185876102ea565b98975050505050505050565b6000806040838503121561040557600080fd5b505080516020909101519092909150565b8082018082111561043757634e487b7160e01b600052601160045260246000fd5b9291505056fea2646970667358221220d8a05369284391fb4d610c04df1b9dfe95d2b0f9047dc68df5cda7288c42e25064736f6c63430008150033",
  "linkReferences": {},
  "deployedLinkReferences": {}
}